:020000040800F2
:10000000000001205D030008ED610008F9610008AF
:100010000162000809620008116200080000000087
:100020000000000000000000000000002562000841
:1000300019620008000000003162000875430008E2
:10004000D5040008D5040008D5040008D50400082C
:10005000D5040008D5040008D5040008D50400081C
:10006000D5040008B93E0008D5040008D5040008EE
:10007000D5040008D5040008D5040008D5040008FC
:10008000D5040008D5040008D5040008D5040008EC
:10009000D5040008D5040008D5040008593F00081D
:1000A000D5040008D5040008D5040008D5040008CC
:1000B000AD450008C5440008D5040008D504000873
:1000C000D5040008D5040008D5040008D5040008AC
:1000D000D5040008D5040008D5040008D50400089C
:1000E000D5040008D5040008D5040008D50400088C
:1000F000D5040008D5040008D5040008D50400087C
:10010000D5040008D5040008D5040008D50400086B
:10011000D5040008D5040008D5040008D50400085B
:10012000D5040008D5040008D5040008D50400084B
:1001300000000000000000000000000000000000BF
:1001400000000000000000000000000000000000AF
:10015000000000000000000000000000000000009F
:10016000000000000000000000000000000000008F
:10017000000000000000000000000000000000007F
:10018000000000000000000000000000000000006F
:10019000000000000000000000000000000000005F
:1001A000000000000000000000000000000000004F
:1001B000000000000000000000000000000000003F
:1001C000000000000000000000000000000000002F
:1001D000000000000000000000000000000000001F
:1001E0005FF8E0F180B58EB000AF02F019F8494B2E
:1001F000494A1A60494B484A1A60494B3B63494B8C
:10020000FB62494BBB62FB6A7B6207E07B6A1A1D9B
:100210007A623A6B111D396312681A60BA6A7B6A96
:100220009A42F3D83B4B1B68404A934204D13B4B64
:100230001B683F4A934200D0FEE73E4B364A1A60A5
:100240003D4B354A1A603D4B3B623D4BFB613B6A7F
:10025000BB6104E0BB691A1DBA6100221A60FA6929
:10026000BB699A42F6D8334B1B68002B03D1324B43
:100270001B68002B00D0FEE701F0DEFF3A1D3B4675
:100280001046194601F010FF2E4A2F4BD31A9B102F
:100290007B6100233B6107E02B4A3B6952F8233026
:1002A00098473B6901333B617A693B699A42F3DCC9
:1002B000264A274BD31A9B107B6100233B6107E042
:1002C000234A3B6952F8233098473B6901333B612D
:1002D0007A693B699A42F3DC7A683B6810461946B2
:1002E00005F078FF78631B4A1B4BD31A9B10FB6009
:1002F000FB68BB6008E0BB68013B174A52F823303B
:100300009847BB68013BBB60BB68002BF3DC786B94
:1003100001F086FE00000020BABADECA9C0200206E
:10032000387F000800000020A00200207856341218
:1003300032547698A0020020E40C0020A002002095
:10034000E80C002004050008040500080405000866
:1003500004050008040500080405000880B500AF86
:10036000FFF740FF80B400AF00BEFEE71EF0040FB1
:100370000CBFEFF30880EFF309807146524A104733
:1003800080B588B002AF78603960184B5B6B7B61D9
:10039000164B9B6B3B61154B9B6AFB60134B1B6BB6
:1003A00003F00203002B10D0104BDB6A002B0CDA99
:1003B00078684BF6AB6101F0DBFF0346002B04D0FD
:1003C0000A4B4FF00042DA620CE0094801F08EFE61
:1003D0003B6800937868F9687A693B6901F032FFFD
:1003E00000BEFEE71837BD4680BD00BF00ED00E04F
:1003F000D47E000880B400AF00BEFEE71EF0040FFC
:100400000CBFEFF30880EFF3098071462F4A1047C5
:1004100080B588B002AF786039600B4B5B6B7B6155
:10042000094B9B6B3B61084B9B6AFB60074801F0E3
:100430005DFE3B6800937868F9687A693B6901F072
:1004400001FF00BEFEE700BF00ED00E0E47E000813
:100450001EF0040F0CBFEFF30880EFF30980714624
:100460001B4A104780B588B002AF786039600B4BEB
:100470005B6B7B61094B9B6B3B61084B9B6AFB6031
:10048000074801F033FE3B6800937868F9687A69A1
:100490003B6901F0D7FE00BEFEE700BF00ED00E0C3
:1004A000F07E000880B400AF00BEFEE780B400AF6D
:1004B00000BEFEE780B400AF00BEFEE780B400AF30
:1004C000BD465DF8047B70478103000811040008F5
:0C04D0006504000880B400AF00BEFEE729
:1004DC00387F000800000020A0020020387F0008B0
:1004EC000000000000000000A0020020E80C00202A
:0804FC000000000000000000F8
:1005080080B586B000AF786000237B6100233B6133
:100518000F23FB607B68DB78002B07D07B68DB78D8
:10052800012B03D03248752101F0CEFD7B685B7842
:100538000F2B03D92E48762101F0C6FD7B689B78E6
:100548000F2B03D92A48772101F0BEFD7B68DB78A1
:10055800002B3AD0274BDB68DB4303F4E0631B0A2C
:100568007B617B69C3F104033B617B69FA6822FA0A
:1005780003F3FB607B685B781A463B6902FA03F376
:100588007B617B689B781A46FB6813407A69134342
:100598007B617B691B017B61174A7B681B787969E2
:1005A800C9B213440A4683F80023134A7B681B78B0
:1005B8005B09DBB218467B681B7803F01F03012137
:1005C80001FA03F342F820300FE00B497B681B78EF
:1005D8005B09DBB218467B681B7803F01F03012216
:1005E8009A4000F1200341F823201837BD4680BD0A
:1005F800807B000800ED00E000E100E080B582B0FB
:1006080000AF78607B681F4A93420BD07B681E4A14
:10061800934207D07B681D4A934203D01C48BC21F3
:1006280001F052FD7B68174A93420AD14FF40070DB
:10063800012100F01FFF4FF40070002100F01AFFA5
:100648001CE07B68104A93420AD14FF48060012174
:1006580000F010FF4FF48060002100F00BFF0DE068
:100668007B680A4A934209D14FF40040012100F007
:1006780001FF4FF40040002100F0FCFE0837BD46A2
:1006880080BD00BF0024014000280140003C01401B
:10069800A87B000880B584B000AF78600023FB60B9
:1006A8007B681B79002B07D07B681B79042B03D050
:1006B8004A486A2101F008FD7B685B79082B0BD05A
:1006C8007B685B790C2B07D07B685B79102B03D098
:1006D80042486B2101F0F8FC7B681B681B0D1B0569
:1006E800002B03D17B681B68002B03D13B486C218E
:1006F80001F0EAFC7B689B79002B07D07B689B792B
:10070800012B03D035486D2101F0DEFC344BFB6032
:100718007B689B79002B4FD03149314B1A687B6835
:100728001B68DB4313400B602D492D4B5A687B68CF
:100738001B68DB4313404B607B681B791A46FB68D8
:100748001344FB60FB68FA6811687A6812680A4308
:100758001A602349224B9A687B681B68DB43134065
:100768008B601F491E4BDA687B681B68DB431340AC
:10077800CB607B685B79102B0ED11949184B9A68AE
:100788007B681B6813438B601549154BDA687B68D7
:100798001B681343CB601DE0114BFB607B685B79E2
:1007A8001A46FB681344FB60FB68FA6811687A68AC
:1007B80012680A431A600DE07B681B791A46FB68C9
:1007C8001344FB60FB68FA6811687A681268D243C0
:1007D8000A401A601037BD4680BD00BFD87B0008AC
:1007E8000004014080B584B000AF78600023FB733B
:1007F8000023BB607B68012B48D07B68022B45D067
:100808007B68042B42D07B68082B3FD07B68102B79
:100818003CD07B68202B39D07B68402B36D07B6856
:10082800802B33D07B68B3F5807F2FD07B68B3F5FE
:10083800007F2BD07B68B3F5806F27D07B68B3F53A
:10084800006F23D07B68B3F5805F1FD07B68B3F55A
:10085800005F1BD07B68B3F5804F17D07B68B3F57A
:10086800004F13D07B68B3F5803F0FD07B68B3F59A
:10087800003F0BD07B68B3F5802F07D07B68B3F5BA
:10088800002F03D00D48E52101F01EFC0C4B1A681F
:100898007B681340BB600A4B5A697B681340002B86
:1008A80005D0BB68002B02D00123FB7301E00023B5
:1008B800FB73FB7B18461037BD4680BDD87B00080C
:1008C8000004014080B582B000AF78607B681B0DE2
:1008D8001B05002B02D17B68002B03D10448FC21A7
:1008E80001F0F2FB034A7B6853610837BD4680BDBF
:1008F800D87B00080004014080B584B000AF786060
:100908000023FB607B68002B0AD07B68012B07D093
:100918007B68022B04D00B4840F2031101F0D4FB92
:10092800094B1B68FB60FB6803F03803FB60FA683F
:100938007B681343FB60044AFB6813601037BD46AD
:1009480080BD00BF0C7C00080020024080B582B04A
:1009580000AF78607B68102B07D07B68002B04D031
:10096800094840F22F1101F0AFFB084A074B1B68FA
:1009780023F0100313600549044B1A687B6813437E
:100988000B600837BD4680BD0C7C00080020024083
:1009980080B400AF044B054A5A60034B044A5A60BE
:1009A800BD465DF8047B704700200240230167457F
:1009B800AB89EFCD80B584B000AF78600423FB73BA
:1009C8007B68B3F1006F03D37B68194A934204D95B
:1009D800184840F2A71101F077FB4FF4302000F0DF
:1009E80099F80346FB73FB7B042B1BD1124A124B6D
:1009F8001B6943F0020313610F4A7B6853610E4A77
:100A08000D4B1B6943F0400313614FF4302000F095
:100A180081F80346FB730849074B1A6941F6FD73D1
:100A280013400B61FB7B18461037BD4680BD00BFE5
:100A3800FEFF0F080C7C00080020024080B584B03F
:100A480000AF78600B467B800423FB737B68B3F1AF
:100A5800006F03D37B68164A934204D915484FF4B4
:100A68005D7101F031FB4FF4005000F053F803467C
:100A7800FB73FB7B042B15D10F4A0F4B1B6943F00B
:100A8800010313617B687A881A804FF4005000F0E4
:100A980041F80346FB730849074B1A6941F6FE7390
:100AA80013400B61FB7B18461037BD4680BD00BF65
:100AB800FEFF0F080C7C00080020024080B483B0C1
:100AC80000AF0423FB71124BDB6803F00103002B1A
:100AD80002D00123FB7113E00D4BDB6803F0040324
:100AE800002B02D00223FB710AE0094BDB6803F0FC
:100AF8001003002B02D00323FB7101E00423FB71D8
:100B0800FB7918460C37BD465DF8047B704700BF7B
:100B18000020024080B584B000AF78600423FB73E6
:100B2800FFF7CCFF0346FB7306E0FFF7C7FF03465A
:100B3800FB737B68013B7B60FB7B012B02D17B68ED
:100B4800002BF2D17B68002B01D10523FB73FB7BC3
:100B580018461037BD4680BD80B588B000AF7860B4
:100B680039600023FB6100233B610023BB61002344
:100B7800FB6000237B610023BB607B68834A934250
:100B88001BD07B68824A934217D07B68814A934284
:100B980013D07B68804A93420FD07B687F4A934288
:100BA8000BD07B687E4A934207D07B687D4A93428C
:100BB80003D07D48B22101F087FA3B68DB78002B2F
:100BC8001FD03B68DB78042B1BD03B68DB78282BD5
:100BD80017D03B68DB78482B13D03B68DB78142BA5
:100BE8000FD03B68DB78102B0BD03B68DB781C2BD5
:100BF80007D03B68DB78182B03D06B48B32101F092
:100C080063FA3B681B88002B03D16748B42101F0C5
:100C18005BFA3B68DB7803F00F03FB613B68DB782A
:100C280003F01003002B15D03B689B78012B0BD0E9
:100C38003B689B78022B07D03B689B78032B03D03B
:100C48005948BB2101F040FA3B689B781A46FB697A
:100C58001343FB613B681B88DBB2002B44D07B68E5
:100C68001B687B610023BB6138E0BB69012202FA83
:100C780003F3FB603B681B881A46FB6813403B6123
:100C88003A69FB689A4226D1BB699B00FB60FB6806
:100C98000F2202FA03F3BB60BB68DB437A69134097
:100CA8007B61FB68FA6902FA03F37A6913437B6193
:100CB8003B68DB78282B05D1BB6901229A407B6809
:100CC8005A6108E03B68DB78482B04D1BB690122F4
:100CD8009A407B681A61BB690133BB61BB69072B0A
:100CE800C3D97B687A691A603B681B88FF2B4AD98D
:100CF8007B685B687B610023BB613EE0BB690833AE
:100D08001A4601239340FB603B681B881A46FB6820
:100D180013403B613A69FB689A422BD1BB699B003F
:100D2800FB60FB680F2202FA03F3BB60BB68DB437E
:100D38007A6913407B61FB68FA6902FA03F37A69FE
:100D480013437B613B68DB78282B07D1BB690833E9
:100D58001A46012303FA02F27B685A613B68DB7882
:100D6800482B07D1BB6908331A46012303FA02F25C
:100D78007B681A61BB690133BB61BB69072BBDD9AD
:100D88007B687A695A602037BD4680BD00080140FB
:100D9800000C0140001001400014014000180140FF
:100DA800001C014000200140407C000890B585B03F
:100DB80000AF03460A46FB711346BB710023FB6074
:100DC800FB79002B16D0FB79012B13D0FB79022B72
:100DD80010D0FB79032B0DD0FB79042B0AD0FB79BB
:100DE800052B07D0FB79062B04D0374840F2652144
:100DF80001F06AF9BB79002B31D0BB79012B2ED0D9
:100E0800BB79022B2BD0BB79032B28D0BB79042BC1
:100E180025D0BB79052B22D0BB79062B1FD0BB79F7
:100E2800072B1CD0BB79082B19D0BB79092B16D0FE
:100E3800BB790A2B13D0BB790B2B10D0BB790C2BA9
:100E48000DD0BB790D2B0AD0BB790E2B07D0BB79FF
:100E58000F2B04D01C4840F2662101F035F9BB790C
:100E680003F003039B000F2202FA03F3FB60174908
:100E7800BB799B08DBB21846144ABB799B08DBB2E6
:100E8800023352F82320FB68DB431A40831C41F8E5
:100E980023200E48BB799B08DBB21C460B4ABB7962
:100EA8009B08DBB2023352F82320F979BB7903F0AF
:100EB80003039B0001FA03F31A43A31C40F8232001
:100EC8001437BD4690BD00BF407C000800000140BB
:100ED80080B400AF134A134B1B6843F0010313603F
:100EE8001049104B5A68104B13404B600D4A0D4B7C
:100EF8001B6823F0847323F480331360094A094B79
:100F08001B6823F480231360064A064B5B6823F4AE
:100F1800FE035360034B4FF41F029A60BD465DF811
:100F2800047B7047001002400000FFF880B582B0D3
:100F380000AF78607B68002B0CD07B68B3F5803FEE
:100F480008D07B68B3F5802F04D0154840F2111102
:100F580001F0BAF8134A134B1B6823F4803313606B
:100F6800104A104B1B6823F4802313607B68B3F589
:100F7800803F03D0B3F5802F07D00DE0094A094B15
:100F88001B6843F48033136006E0064A054B1B6870
:100F980043F4A023136000BF0837BD4680BD00BFDF
:100FA800747C00080010024080B582B000AF0023B6
:100FB8003B600023FB710023BB71312000F092FAE3
:100FC8000346BB713B6801333B603B68B3F5A06FD8
:100FD80002D0BB79002BF0D0312000F083FA034611
:100FE800002B02D00123FB7101E00023FB71FB7988
:100FF80018460837BD4680BD80B584B000AF78601C
:1010080039600023FB607B68002B0CD07B68B3F54C
:10101800803F08D07B68B3F5403F04D02B4840F2AE
:101028007F1101F051F83B68002B3CD03B68B3F5C9
:10103800802F38D03B68B3F5002F34D03B68B3F528
:10104800402F30D03B68B3F5801F2CD03B68B3F5F8
:10105800A01F28D03B68B3F5C01F24D03B68B3F568
:10106800E01F20D03B68B3F5001F1CD03B68B3F5E8
:10107800101F18D03B68B3F5201F14D03B68B3F598
:10108800301F10D03B68B3F5401F0CD03B68B3F558
:10109800501F08D03B68B3F5601F04D00B484FF4CD
:1010A800C07101F011F80A4B5B68FB60FB6823F420
:1010B8007C13FB607A683B681343FA681343FB6050
:1010C800034AFB6853601037BD4680BD747C000836
:1010D8000010024080B582B000AF0346FB71FB7977
:1010E800002B07D0FB79012B04D005484FF4CA71B7
:1010F80000F0EAFF034AFB7913600837BD4680BD5C
:10110800747C00086000424280B584B000AF78600B
:101118000023FB607B68002B0AD07B68012B07D07B
:101128007B68022B04D00B484FF40E7100F0CCFF03
:10113800094B5B68FB60FB6823F00303FB60FA68FC
:101148007B681343FB60044AFB6853601037BD4655
:1011580080BD00BF747C00080010024080B400AF5E
:10116800054B5B68DBB203F00C03DBB21846BD46E7
:101178005DF8047B704700BF0010024080B584B062
:1011880000AF78600023FB607B68002B1CD07B6875
:10119800802B19D07B68902B16D07B68A02B13D09E
:1011A8007B68B02B10D07B68C02B0DD07B68D02B10
:1011B8000AD07B68E02B07D07B68F02B04D00B4863
:1011C8004FF4197100F080FF094B5B68FB60FB6806
:1011D80023F0F003FB60FA687B681343FB60044A62
:1011E800FB6853601037BD4680BD00BF747C0008A3
:1011F8000010024080B584B000AF78600023FB6027
:101208007B68002B14D07B68B3F5806F10D07B68A7
:10121800B3F5A06F0CD07B68B3F5C06F08D07B68BE
:10122800B3F5E06F04D00B4840F27E2100F04CFF8C
:10123800094B5B68FB60FB6823F4E063FB60FA68BA
:101248007B681343FB60044AFB6853601037BD4654
:1012580080BD00BF747C00080010024080B584B0D7
:1012680000AF78600023FB607B68002B14D07B689C
:10127800B3F5806F10D07B68B3F5A06F0CD07B6896
:10128800B3F5C06F08D07B68B3F5E06F04D00B48A6
:101298004FF4267100F018FF094B5B68FB60FB6890
:1012A80023F46053FB607B68DB00FA681343FB6040
:1012B800034AFB6853601037BD4680BD747C000844
:1012C8000010024080B584B000AF78600023FB6056
:1012D8007B68002B10D07B68B3F5804F0CD07B68FF
:1012E800B3F5004F08D07B68B3F5404F04D00B48E6
:1012F80040F2023100F0E8FE094B5B68FB60FB68D6
:1013080023F44043FB60FA687B681343FB60044A9C
:10131800FB6853601037BD4680BD00BF747C000871
:101328000010024080B582B000AF78600B46FB70B9
:101338007B6823F4AA6323F00703002B02D17B68A0
:10134800002B04D1114840F22B4100F0BDFEFB7880
:10135800002B07D0FB78012B04D00C4840F22C411D
:1013680000F0B2FEFB78002B06D00949084B5A69F9
:101378007B6813434B6106E00549054B5A697B6856
:10138800DB4313404B610837BD4680BD747C0008C1
:101398000010024080B582B000AF78600B46FB7049
:1013A8007A68154B1340002B02D17B68002B04D1BF
:1013B800124840F24A4100F087FEFB78002B07D024
:1013C800FB78012B04D00D4840F24B4100F07CFE25
:1013D800FB78002B06D00A49094B9A697B681343AE
:1013E8008B6106E00649064B9A697B68DB4313402C
:1013F8008B610837BD4680BD0200C0FF747C0008C1
:101408000010024080B582B000AF78600B46FB70D8
:101418007A68154B1340002B02D17B68002B04D14E
:10142800124840F2694100F04FFEFB78002B07D0CC
:10143800FB78012B04D00D4840F26A4100F044FECD
:10144800FB78002B06D00A49094BDA697B681343FD
:10145800CB6106E00649064BDA697B68DB4313403B
:10146800CB610837BD4680BD00360181747C000819
:101478000010024080B582B000AF78600B46FB7068
:101488007A68154B1340002B02D17B68002B04D1DE
:10149800124840F2A44100F017FEFB78002B07D059
:1014A800FB78012B04D00D4840F2A54100F00CFE5A
:1014B800FB78002B06D00A49094BDA687B6813438E
:1014C800CB6006E00649064BDA687B68DB431340CD
:1014D800CB600837BD4680BD0200C0FF747C0008A1
:1014E8000010024080B586B000AF0346FB710023B0
:1014F800FB6000237B610023FB74FB79212B22D046
:10150800FB79312B1FD0FB79392B1CD0FB79412B70
:1015180019D0FB79612B16D0FB797A2B13D0FB7984
:101528007B2B10D0FB797C2B0DD0FB797D2B0AD03F
:10153800FB797E2B07D0FB797F2B04D0174840F22C
:10154800345100F0C1FDFB795B09DBB2FB60FB683D
:10155800012B03D1124B1B687B6109E0FB68022B4E
:1015680003D10F4B1B6A7B6102E00D4B5B6A7B6109
:10157800FB7903F01F03FB60FB687A6922FA03F327
:1015880003F00103002B02D00123FB7401E00023C8
:10159800FB74FB7C18461837BD4680BD747C000878
:1015A8000010024080B400AF044A044B5B6A43F069
:1015B80080735362BD465DF8047B7047001002409B
:1015C80080B584B000AF786039600023FB817B6808
:1015D8006B4A93420BD07B686A4A934207D07B6878
:1015E800694A934203D06948A32100F06DFD3B6826
:1015F8001B88002B12D03B681B88B3F5806F0DD079
:101608003B681B88B3F5004F08D03B681B88B3F5CF
:10161800404F03D05D48A62100F056FD3B685B882B
:10162800B3F5827F07D03B685B88002B03D057480F
:10163800A72100F049FD3B689B88B3F5006F07D0F0
:101648003B689B88002B03D05048A82100F03CFD44
:101658003B68DB88002B07D03B68DB88022B03D074
:101668004A48A92100F030FD3B681B89002B07D0B0
:101678003B681B89012B03D04448AA2100F024FDB4
:101688003B685B89B3F5007F07D03B685B89002B1B
:1016980003D03E48AB2100F017FD3B689B89002B27
:1016A8001FD03B689B89082B1BD03B689B89102B5C
:1016B80017D03B689B89182B13D03B689B89202B3C
:1016C8000FD03B689B89282B0BD03B689B89302B1C
:1016D80007D03B689B89382B03D02C48AC2100F0FD
:1016E800F3FC3B68DB89002B07D03B68DB89802B48
:1016F80003D02648AD2100F0E7FC3B681B8A002B8D
:1017080003D12248AE2100F0DFFC7B681B88FB81F7
:10171800FB8903F44153FB813B681A883B685B886B
:1017280013439AB23B689B8813439AB23B68DB88A1
:1017380013439AB23B681B8913439AB23B685B898F
:1017480013439AB23B689B8913439AB23B68DB897F
:1017580013439AB2FB891343FB817B68FA891A8089
:101768007B689B8B9BB223F400639AB27B689A8355
:101778003B681A8A7B681A821037BD4680BD00BF55
:101788000030014000380040003C0040A47C0008C4
:1017980080B582B000AF78600B46FB707B68194A51
:1017A80093420CD07B68184A934208D07B68174A4A
:1017B800934204D0164840F2B71100F085FCFB783C
:1017C800002B07D0FB78012B04D011484FF4DC71B3
:1017D80000F07AFCFB78002B08D07B681B889BB252
:1017E80043F040039AB27B681A8007E07B681B8845
:1017F8009BB223F040039AB27B681A800837BD4633
:1018080080BD00BF0030014000380040003C00406F
:10181800A47C000880B582B000AF78600B467B805E
:101828007B680B4A93420CD07B680A4A934208D0E3
:101838007B68094A934204D0084840F23A2100F0F4
:1018480043FC7B687A889A810837BD4680BD00BF13
:101858000030014000380040003C0040A47C0008F3
:1018680080B582B000AF78607B680B4A93420CD099
:101878007B680A4A934208D07B68094A934204D09D
:10188800084840F24A2100F01FFC7B689B899BB204
:1018980018460837BD4680BD00300140003800407A
:1018A800003C0040A47C000880B584B000AF78609C
:1018B8000B467B800023FB737B681F4A93420CD046
:1018C8007B681E4A934208D07B681D4A934204D025
:1018D8001C4840F2163100F0F7FB7B88802B19D0AA
:1018E8007B88402B16D07B88202B13D07B88102B2D
:1018F80010D07B88082B0DD07B88042B0AD07B88DE
:10190800022B07D07B88012B04D00E4840F21731F8
:1019180000F0DAFB7B681B899AB27B8813409BB284
:10192800002B02D00123FB7301E00023FB73FB7B38
:1019380018461037BD4680BD0030014000380040D1
:10194800003C0040A47C000880B584B000AF7860FB
:1019580039600023FB817B68674A934243D07B68E8
:10196800B3F1804F3FD07B68644A93423BD07B6899
:10197800634A934237D07B68624A934233D07B688C
:10198800614A93422FD07B68604A93422BD07B6890
:101998005F4A934227D07B685E4A934223D07B6894
:1019A8005D4A93421FD07B685C4A93421BD07B6898
:1019B8005B4A934217D07B685A4A934213D07B689C
:1019C800594A93420FD07B68584A93420BD07B68A0
:1019D800574A934207D07B68564A934203D05648E9
:1019E800E72100F071FB3B685B88002B13D03B6854
:1019F8005B88102B0FD03B685B88202B0BD03B6893
:101A08005B88402B07D03B685B88602B03D04A4833
:101A1800E82100F059FB3B68DB88002B0DD03B68C0
:101A2800DB88B3F5807F08D03B68DB88B3F5007F9F
:101A380003D04148E92100F047FB7B681B88FB8104
:101A48007B682D4A934213D07B68314A93420FD06A
:101A58007B68B3F1804F0BD07B68284A934207D04C
:101A68007B68274A934203D07B68264A934208D171
:101A7800FB8923F07003FB813B685A88FB89134379
:101A8800FB817B68204A93420CD07B681F4A9342B3
:101A980008D0FB8923F44073FB813B68DA88FB8913
:101AA8001343FB817B68FA891A803B689A887B68B4
:101AB8009A853B681A887B681A857B680E4A934228
:101AC8000FD07B68124A93420BD07B68174A934227
:101AD80007D07B68164A934203D07B68154A934225
:101AE80004D13B681B7A9AB27B681A867B6801220C
:101AF8009A821037BD4680BD002C0140000400408A
:101B080000080040000C0040001000400014004095
:101B180000340140004C0140005001400054014095
:101B280000180040001C0040002000400040014018
:101B38000044014000480140D47C000880B582B0D0
:101B480000AF78600B46FB707B68354A934244D0FF
:101B58007B68B3F1804F40D07B68324A93423CD0D7
:101B68007B68314A934238D07B68304A934234D0FC
:101B78007B682F4A934230D07B682E4A93422CD000
:101B88007B682D4A934228D07B682C4A934224D004
:101B98007B682B4A934220D07B682A4A93421CD008
:101BA8007B68294A934218D07B68284A934214D00C
:101BB8007B68274A934210D07B68264A93420CD010
:101BC8007B68254A934208D07B68244A934204D014
:101BD800234840F2293100F077FAFB78002B07D030
:101BE800FB78012B04D01E4840F22A3100F06CFA31
:101BF800FB78002B08D07B681B889BB243F001035D
:101C08009AB27B681A8007E07B681B889BB223F036
:101C180001039AB27B681A800837BD4680BD00BFB1
:101C2800002C01400004004000080040000C004067
:101C3800001000400014004000340140004C0140F6
:101C4800005001400054014000180040001C0040B2
:101C5800002000400040014000440140004801408D
:101C6800D47C000880B582B000AF78600B467B80DA
:101C780013467B707B683C4A934244D07B68B3F13F
:101C8800804F40D07B68394A93423CD07B68384AC1
:101C9800934238D07B68374A934234D07B68364ABF
:101CA800934230D07B68354A93422CD07B68344AC3
:101CB800934228D07B68334A934224D07B68324AC7
:101CC800934220D07B68314A93421CD07B68304ACB
:101CD800934218D07B682F4A934214D07B682E4ACF
:101CE800934210D07B682D4A93420CD07B682C4AD3
:101CF800934208D07B682B4A934204D02A4840F28A
:101D08006B3100F0E1F97B8803F47F43002B02D1AB
:101D18007B88002B04D124484FF45B7100F0D4F980
:101D28007B78002B07D07B78012B04D01E4840F22B
:101D38006D3100F0C9F97B78002B08D07B689B894E
:101D48009AB27B8813439AB27B689A8109E07B68D0
:101D58009B899AB27B88DB439BB213409AB27B681B
:101D68009A810837BD4680BD002C01400004004020
:101D780000080040000C0040001000400014004023
:101D880000340140004C0140005001400054014023
:101D980000180040001C00400020004000400140A6
:101DA8000044014000480140D47C000880B584B05C
:101DB80000AF78600B467B800023FB730023BB8158
:101DC80000237B817B68404A934244D07B68B3F10F
:101DD800804F40D07B683D4A93423CD07B683C4A68
:101DE800934238D07B683B4A934234D07B683A4A66
:101DF800934230D07B68394A93422CD07B68384A6A
:101E0800934228D07B68374A934224D07B68364A6D
:101E1800934220D07B68354A93421CD07B68344A71
:101E2800934218D07B68334A934214D07B68324A75
:101E3800934210D07B68314A93420CD07B68304A79
:101E4800934208D07B682F4A934204D02E4840F62C
:101E5800582100F039F97B88012B19D07B88022B97
:101E680016D07B88042B13D07B88082B10D07B8856
:101E7800102B0DD07B88202B0AD07B88402B07D0D5
:101E88007B88802B04D0204840F6592100F01CF9AB
:101E98007B681B8A9AB27B881340BB817B689B89CD
:101EA8009AB27B8813407B81BB89002B05D07B8944
:101EB800002B02D00123FB7301E00023FB73FB7BA3
:101EC80018461037BD4680BD002C01400004004074
:101ED80000080040000C00400010004000140040C2
:101EE80000340140004C01400050014000540140C2
:101EF80000180040001C0040002000400040014045
:101F08000044014000480140D47C000880B582B0FC
:101F180000AF78600B467B807B682E4A934244D0A2
:101F28007B68B3F1804F40D07B682B4A93423CD00A
:101F38007B682A4A934238D07B68294A934234D036
:101F48007B68284A934230D07B68274A93422CD03A
:101F58007B68264A934228D07B68254A934224D03E
:101F68007B68244A934220D07B68234A93421CD042
:101F78007B68224A934218D07B68214A934214D046
:101F88007B68204A934210D07B681F4A93420CD04A
:101F98007B681E4A934208D07B681D4A934204D04E
:101FA8001C4840F6822100F08FF87B8803F47F43B9
:101FB800002B02D17B88002B04D1164840F68321E0
:101FC80000F082F87B88DB439AB27B681A82083774
:101FD800BD4680BD002C01400004004000080040C0
:101FE800000C004000100040001400400034014084
:101FF800004C0140005001400054014000180040CE
:10200800001C004000200040004001400044014006
:1020180000480140D47C000880B483B000AF7860E9
:10202800FEE700BF80B500AF024800F07DF8012050
:10203800FFF7F2FF047D000880B584B000AF786038
:10204800144B1B68002B02D1124B134A1A60114B18
:102058001B68FB607B68033323F003037B600D4B35
:102068001A687B6813440D4A934207D905F04CF966
:1020780002460C2313604FF0FF3306E0054B1A6845
:102088007B681344034A1360FB6818461037BD4643
:1020980080BD00BFA4020020E80C002000FC002046
:1020A80080B483B000AF786039607B6801221A6021
:1020B8003B68044A1A6000BF0C37BD465DF8047BD4
:1020C800704700BF0400002080B582B000AF786080
:1020D8003960034879683A6800F004F8FFF7A2FF0E
:1020E8005C7D00080FB480B582B000AF07F114031F
:1020F8003B600C4880213A693B6805F047F97860F5
:102108007B68002B05DD7B680648194600F024F83B
:1021180078607B6818460837BD46BDE8804004B043
:10212800704700BFAC02002080B582B000AF786075
:10213800786805F0FAF803467868194600F00CF854
:102148000448012100F008F8034618460837BD4640
:1021580080BD00BF887D000880B582B000AF786080
:1021680039607868396800F005F80346184608377A
:10217800BD4680BDB0B590B000AF786039607A6870
:102188003B6813441B78002B0BD104233B637B680B
:10219800FB623C6BFD6A20462946ABBE0446BC6226
:1021A80035E03B68FB632FE0FB6B102B28BF102347
:1021B8007B630023BB630DE07B68197807F10C0291
:1021C800BB6B13440A461A70BB6B0133BB637B6855
:1021D80001337B60BA6B7B6B9A42EDD307F10C023B
:1021E800BB6B134400221A7004237B6207F10C03B3
:1021F8003B627C6A3D6A20462946ABBE0446FC61C8
:10220800FA6B7B6BD31AFB63FB6B002BCCD13B685F
:1022180018464037BD46B0BD80B500AF00F0CEF8D7
:10222800014B024A9A6080BD00ED00E00000000802
:1022380080B500AF00F0F6F880BD00BF80B584B06F
:1022480000AFF860B9607A603B603448FFF74AFF36
:10225800FB681B6832481946FFF744FFFB685B6858
:1022680030481946FFF73EFFFB689B682E48194621
:10227800FFF738FFFB68DB682C481946FFF732FF89
:10228800FB681B692A481946FFF72CFFFB685B6946
:1022980028481946FFF726FFFB689B692648194618
:1022A800FFF720FFFB68DB6924481946FFF71AFF90
:1022B8002348FFF717FF2348B968FFF713FF224B9E
:1022C800DB6A22481946FFF70DFF1F4B1B6B20489E
:1022D8001946FFF707FF1C4BDB6B1E481946FFF733
:1022E80001FFBB6803F08003002B03D01A4879680C
:1022F800FFF7F8FEBB6803F40043002B03D0174830
:102308003968FFF7EFFE1648FFF7ECFE1548B96984
:10231800FFF7E8FE1037BD4680BD00BFB87D000856
:10232800C87D0008D87D0008E87D0008F87D000811
:10233800087E0008187E0008287E0008387E0008FD
:10234800487E0008547E000800ED00E0647E000826
:10235800747E0008847E0008947E0008A47E00082D
:10236800B47E0008BC7E000880B485B000AF7860F9
:102378000B467B807B689B69FB60FB681B887A88BF
:102388009A4213D17B681B68BB60BB68032B03D0E0
:10239800042B03D000230AE000BF00E000BF7B68E5
:1023A8009B699A1C7B689A61012300E00023184608
:1023B8001437BD465DF8047B704700BF80B500AF99
:1023C800154A154B1B6843F0010313601249124B61
:1023D8005A68124B13404B600F4A0F4B1B6823F08F
:1023E800847323F4803313600B4A0B4B1B6823F46C
:1023F80080231360084A084B5B6823F4FE0353608C
:10240800054B4FF41F029A6000F07AF8044B4FF026
:1024180000629A6080BD00BF001002400000FFF813
:1024280000ED00E080B485B000AF0023FB6000231E
:10243800BB6000237B602D4B5B6803F00C03FB60E3
:10244800FB68042B07D0082B09D0002B34D1284B6C
:10245800284A1A6034E0264B264A1A6030E0234B9B
:102468005B6803F47013BB60204B5B6803F4803334
:102478007B60BB689B0C0233BB607B68002B06D17A
:10248800BB681D4A02FB03F3194A136013E0174B9C
:102498005B6803F40033002B06D0BB68164A02FBC6
:1024A80003F3134A136006E0BB68124A02FB03F306
:1024B8000F4A136004E003E00D4B0E4A1A6000BF98
:1024C8000A4B5B6803F0F0031B090C4AD35CDBB2D0
:1024D800FB60074B1A68FB6822FA03F3044A13608F
:1024E8001437BD465DF8047B704700BF00100240FA
:1024F8000C00002000127A0000093D0010000020A6
:1025080080B500AF00F002F880BD00BF80B483B092
:1025180000AF00237B6000233B603A4A394B1B68BD
:1025280043F480331360374B1B6803F400333B607C
:102538007B6801337B603B68002B03D17B68B3F574
:10254800A06FF0D12F4B1B6803F40033002B02D08F
:1025580001233B6001E000233B603B68012B4BD12A
:10256800294A294B1B6843F010031360264A264B5F
:102578001B6823F003031360234A234B1B6843F0B3
:10258800020313601F4A1F4B5B6853601D4A1D4BB3
:102598005B6853601B4A1B4B5B6843F48063536062
:1025A800184A184B5B6823F47C135360154A154B83
:1025B8005B6843F4E8135360124A124B1B6843F0FC
:1025C8008073136000BF0F4B1B6803F00073002B70
:1025D800F9D00C4A0B4B5B6823F003035360094A9C
:1025E800084B5B6843F00203536000BF054B5B6810
:1025F80003F00C03082BF9D10C37BD465DF8047BBA
:10260800704700BF001002400020024080B584B02F
:1026180000AF0346FB710023FB73FB79012B02D04B
:10262800022B03D007E000F041FD04E000F036F98A
:102638000346FB7300BFFB7B18461037BD4680BDC1
:1026480080B582B000AF78600B46FB70FB78012B39
:1026580002D0022B04D007E0786800F065FD03E0A3
:10266800786800F093FC00BF0837BD4680BD00BF06
:1026780080B582B000AF0346FB71FB79012B02D015
:10268800022B03D005E000F06BFD02E000F0AAFC8D
:1026980000BF0837BD4680BD80B584B000AF034693
:1026A800FB710023FB73FB79012B02D0022B05D0B1
:1026B80009E000F00FFE0346FB7304E000F0F0F9B8
:1026C8000346FB7300BFFB7B18461037BD4680BD31
:1026D80080B582B000AF03460A46FB711346BB7152
:1026E800BB79012B02D0022B0DD011E0FB791846E3
:1026F80000F04AFDFB79084A52F8232001320649C6
:1027080041F8232004E0FB79184600F073FC00BF71
:102718000837BD4680BD00BF5403002080B582B095
:1027280000AF0346FB80FB88DBB2184600F046FD8D
:10273800FB88DBB2184600F071FC0837BD4680BD47
:1027480080B582B000AF78600B46FB70FB78012B38
:1027580002D0022B04D007E0786800F061FD03E0A6
:10276800786800F0FBFB00BF0837BD4680BD00BF9E
:1027780080B582B000AF0346FB71FB79012B02D014
:10278800022B03D005E000F05BFD02E000F024FC22
:1027980000BF0837BD4680BD80B584B000AF034692
:1027A800FB710023FB73FB79012B02D0022B05D0B0
:1027B80009E000F05DFD0346FB7304E000F05CF9FE
:1027C8000346FB7300BFFB7B18461037BD4680BD30
:1027D80080B584B000AF0346FB710023FB73FB791F
:1027E800012B02D0022B05D009E000F063FD03465F
:1027F800FB7304E000F036FB0346FB7300BFFB7B72
:1028080018461037BD4680BD80B584B000AF7860EB
:1028180039600D4B80225A617B68DBB263F07F031D
:10282800DBB2184600F032FC3B68DBB2184600F019
:102838002DFC0346FB73044B80221A61FB7B184670
:102848001037BD4680BD00BF0010014080B584B080
:1028580000AF78600B4B80225A617B68DBB203F0D3
:102868007F03DBB2184600F011FC002000F00EFCDC
:102878000346FB73034B80221A61FB7B1846103713
:10288800BD4680BD0010014080B500AF0720802103
:10289800FFF7BAFF962001F095FE80BD80B582B0A3
:1028A80000AF4FF47A5001F08DFEFFF7EDFF00F016
:1028B800D5FB0020FFF7CAFF0346FB71FB79082B05
:1028C80004D0FB79072B01D000234FE07D200421A1
:1028D800FFF79AFF7E203721FFF796FF30208D21E2
:1028E800FFF792FF32208821FFF78EFF3320122155
:1028F800FFF78AFF082000F023FB1E4A3B1D1288C1
:102908001A803B1D1846022100F064FA002000F0EE
:10291800B5FA3F201221FFF777FF122000F06AFA7C
:10292800122000F075FA002000F080FA002000F074
:102938008BFA0B201221FFF767FF0C201521FFF7F8
:1029480063FF05203721FFF75FFF06205021FFF7BF
:102958005BFF094B1B681846084900F0C5F80B20B7
:1029680000F0E0F9072000F0AFF801231846083717
:10297800BD4680BD007F0008E4010020CDCC4C3D61
:1029880080B582B000AF3B1D03201946022200F03B
:1029980087FA3B79DBB25BB2002B05DA00F05EFB0D
:1029A8000120012102F0AAFB3B7903F02003002B50
:1029B80003D00220012102F0A1FB3B7903F01003B0
:1029C800002B03D00320012102F098FB3B7903F090
:1029D8000103002B05D00420012102F08FFB00F039
:1029E800FBFA7B7903F01003002B06D02620FFF7B3
:1029F8002DFF0346DAB21D4B1A707B7903F00103F1
:102A0800002B0CD00520012102F078FBFFF746FFD0
:102A1800174B1B78184600F001FB00F0DDFA7B79B4
:102A280003F00403002B03D00620012102F066FB0B
:102A38001120FFF70BFF0346184604F001FA03467E
:102A480018464FF0854104F049F90346184604F04A
:102A58003BFC0346DAB2074B1A700F208021FFF7C0
:102A6800D3FE3B7918460837BD4680BDCE0300200B
:102A7800CF030020CD03002080B582B000AF002333
:102A8800FB71FFF77DFF034603F00203002B01D023
:102A98000123FB71FB7918460837BD4680BD00BF8E
:102AA80080B582B000AF0023FB71FFF769FF0346D2
:102AB80003F00403002B01D00123FB71FB791846B6
:102AC8000837BD4680BD00BF80B582B000AF034661
:102AD800FB71FB796D201946FFF796FE0837BD4656
:102AE80080BD00BF0000000080B586B000AF7860F0
:102AF80039604023FB7578687F4904F097FB0346EB
:102B0800002B06D178687D4904F0AEFB0346002B04
:102B180001D00023D9E07868794904F09BFB03468B
:102B2800002B41D038684FF0000104F07FFB0346CA
:102B3800002B0ED1386803F06FFD02460B46104695
:102B4800194665A3D3E9002304F04AF80346002B8D
:102B580001D00023B9E078684FF0804104F07CFA96
:102B680003467B60FB7D43F02003FB75386803F068
:102B780053FD02460B461046194659A3D3E90023D4
:102B880003F09EFD02460B461046194656A3D3E9AC
:102B9800002303F0BFFE02460B461046194604F018
:102BA80029F80346BB7535E038684FF0000104F09A
:102BB8003DFB0346002B0ED1386803F02DFD02467D
:102BC8000B46104619464AA3D3E9002304F008F837
:102BD8000346002B01D0002377E0386803F01CFD82
:102BE80002460B46104619463DA3D3E9002303F0DD
:102BF80067FD02460B46104619464FF00002414B4E
:102C080003F088FE02460B461046194603F0F2FF11
:102C18000346BB7578683C4904F01EFA03467B609E
:102C2800786803F0F9FC02460B461046194603F093
:102C380003FB02460B461046194603F0FBFF03460A
:102C48003B617868396904F049F80346FB603869E4
:102C580004F03AFB0346DBB2183BFB72FA7DFB7AC1
:102C68001343FB75F868294904F042F903461846EE
:102C780004F02AFB03463B8173200021FFF7C4FDC3
:102C880074200021FFF7C0FDFB7D75201946FFF772
:102C9800BBFD3B891B0A9BB276201946FFF7B4FDA2
:102CA8003B89DBB277201946FFF7AEFDBB7D2A20B2
:102CB8001946FFF7A9FD00F02BF8034603F00803B7
:102CC800002B0CBF01230023DBB218461837BD4682
:102CD80080BD00BFAFF30080666666666666D43F57
:102CE8000000000080842E4100000000008893400E
:102CF800666666666666C43F0000704300007044FE
:102D08000000F043008883400000204100007A471B
:102D180080B500AF0220FFF799FD0346DBB21846E5
:102D280080BD00BF80B588B000AF0346FB71FB795A
:102D3800192B01D9002313E0FA791346DB00134459
:102D48005B00094A134407F10C0210461946122287
:102D580004F0E0FA07F10C03184600F007F8012325
:102D680018462037BD4680BD2000002080B582B0BF
:102D780000AF78607B681B781C201946FFF744FD7C
:102D88007B685B781F201946FFF73EFD7B6802339E
:102D980020201946062200F0ABF87B6808332C2067
:102DA8001946032200F0A4F87B68DB7A58201946FC
:102DB800FFF72AFD7B681B7B69201946FFF724FD76
:102DC8007B680D336E201946052200F091F808370C
:102DD800BD4680BD80B582B000AF78600B46FB7001
:102DE800FB78362079681A4600F082F80837BD4625
:102DF80080BD00BF80B582B000AF0346FB71FB7990
:102E08003A201946FFF700FD0837BD4680BD00BFD0
:102E180080B582B000AF0346FB71FB793B201946B1
:102E2800FFF7F2FC0837BD4680BD00BF80B582B011
:102E380000AF0346FB71FB793C201946FFF7E4FC21
:102E48000837BD4680BD00BF80B582B000AF0346DD
:102E5800FB71FB793D201946FFF7D6FC0837BD46C4
:102E680080BD00BF80B400AF034B1B781846BD4639
:102E78005DF8047B704700BFCE03002080B582B0A8
:102E880000AF0346FB71FB79002B01D0002300E063
:102E9800FF2343201946FFF7B7FC0837BD4680BD1E
:102EA80090B583B000AF03463960FB711346BB7120
:102EB8000E4B80225A61FB7903F07F03DBB2184680
:102EC80000F0E4F807E03C68631C3B60002000F079
:102ED800DDF803462370BB795A1EBA71002BF2D174
:102EE800024B80221A610C37BD4690BD001001408C
:102EF80080B582B000AF03463960FB711346BB71E1
:102F08000E4B80225A61FB7963F07F03DBB21846CF
:102F180000F0BCF806E03B685A1C3A601B7818467B
:102F280000F0B4F8BB795A1EBA71002BF3D1034BE9
:102F380080221A610837BD4680BD00BF00100140DD
:102F480080B582B000AF0346FB71FB793420194687
:102F5800FFF75AFC0837BD4680BD00BF80B584B076
:102F680000AF78604B20FFF771FC0346FB73FB7BD7
:102F7800072B00D907E0FB7B7F2079681A46FFF70B
:102F88008FFF00F077F81037BD4680BD80B582B05E
:102F980000AF78607F2079680422FFF7A9FF3E2000
:102FA8000421FFF731FC00F01DF80837BD4680BD4D
:102FB80080B582B000AF0346FB710B20FFF7B2FE6D
:102FC800FB7943F00103DBB207201946FFF71CFC2D
:102FD8000837BD4680BD00BF80B500AF0420FFF7AD
:102FE800E7FF80BD80B500AF0820FFF7E1FF00F0E4
:102FF80041F880BD80B582B000AF0346FB71FB7914
:10300800044A52F8233018460349FFF76DFD083784
:10301800BD4680BDE4010020CDCC4C3D80B582B0DA
:1030280000AF0346FB71FB793F201946FFF7ECFB25
:10303800FB791846FFF7DEFEFB791846FFF7E8FE36
:103048000020FFF7F3FE0020FFF7FEFE024AFB799F
:1030580013700837BD4680BDCF03002080B500AF90
:1030680008200321FFF7D0FB08200021FFF7CCFB45
:1030780080BD00BF80B500AF08200221FFF7C4FB68
:1030880008200021FFF7C0FB80BD00BF80B582B0DB
:1030980000AF0346FB71FB79184601F00DF80346B3
:1030A800FB71FB7918460837BD4680BD80B500AF77
:1030B8001A4B02225A6120203B2100F039F92320C3
:1030C800012100F035F930201549032200F09AF962
:1030D8002220012100F02CF92A201249032200F0B5
:1030E80091F93120062100F023F92420002100F075
:1030F8001FF92520782100F01BF92620262100F051
:1031080017F92720FF2100F013F9E120002100F032
:103118000FF9E220002100F00BF980BD00100140FA
:10312800F0010020F401002080B582B000AF786083
:103138000A4B02225A612720FF2100F0F9F8E1200A
:10314800002100F0F5F8A0207968062200F05AF96D
:10315800024B02221A610837BD4680BD00100140AB
:1031680080B500AF074B02225A61E120002100F030
:10317800DFF820203A2100F0DBF8024B02221A6126
:1031880080BD00BF0010014080B582B000AF03468B
:10319800FB71FB79084AD35C2520194600F0C8F872
:1031A800E220002100F0C4F82720FF2100F0C0F839
:1031B8000837BD4680BD00BFF801002080B582B049
:1031C80000AF0346FB71FB791B12DAB2124B5A703F
:1031D800114AFB799370FB79DB431B12DAB20F4B70
:1031E8005A70FB79DB43DAB20C4B9A70E12000216C
:1031F80000F09EF8E220002100F09AF830200649FD
:10320800032200F0FFF82A200449032200F0FAF80C
:103218000837BD4680BD00BFF0010020F401002042
:1032280080B582B000AF786061207968062200F02E
:10323800BBF82720FF2100F07BF80837BD4680BD8A
:1032480080B500AF094B02225A61E220002100F04C
:103258006FF82720FF2100F06BF820203B2100F0B9
:1032680067F8024B02221A6180BD00BF00100140BE
:1032780080B582B000AF0023FB710D4B9B6803F053
:103288001003002B0ED1072000F072F80346BB7123
:10329800BB7903F04003002B02D00123FB7101E04E
:1032A8000023FB71FB7918460837BD4680BD00BF77
:1032B8000010014080B582B000AF0023FB71FB799C
:1032C8000920194600F034F8FB7918460837BD463E
:1032D80080BD00BF80B582B000AF0023FB710B4BEF
:1032E8009B6803F01003002B0BD1072000F040F877
:1032F8000346BB71BB7903F02003002B01D00123E7
:10330800FB71FB7918460837BD4680BD00100140A7
:1033180080B582B000AF0346FB71FB79184600F018
:103328009DFE0346FB71FB7918460837BD4680BDF4
:1033380080B584B000AF03460A46FB711346BB71E3
:103348000A4B04225A61FB791846FFF7E1FF03464E
:10335800FB73BB791846FFF7DBFF044B04221A61A5
:10336800FB7B18461037BD4680BD00BF00100140EA
:1033780080B584B000AF0346FB710A4B04225A6142
:10338800FB791846FFF7C4FF0020FFF7C1FF03468B
:10339800FB73044B04221A61FB7B18461037BD46A9
:1033A80080BD00BF0010014090B585B000AF034656
:1033B8003960FB711346BB71114B04225A61FB79CA
:1033C8001846FFF7A5FF0346BB730023FB730AE00B
:1033D800FB7B3A68D4180020FFF79AFF0346237056
:1033E800FB7B0133FB73FA7BBB799A42F0D3044B26
:1033F80004221A61BB7B18461437BD4690BD00BF36
:103408000010014080B584B000AF03463960FB71FD
:103418001346BB71114B04225A61FB791846FFF71A
:1034280077FF0346FB730023BB730BE03B685A1C12
:103438003A601B781846FFF76BFF0346FB73BB7BAC
:103448000133BB73BA7BBB799A42EFD3034B042297
:103458001A61FB7B18461037BD4680BD001001403D
:1034680080B500AF0148FDF7C9F880BD00240140D0
:1034780080B584B000AF06237B8106233B810023FF
:10348800FB810023FB800023BB804FF6FF73BB81C9
:10349800964B1B887B81964B1B883B817B894EF61C
:1034A800EE62934238D04FF6FF72934203D0002B5E
:1034B80000F0A5800BE13B89002B09D18B48FDF773
:1034C80079FA03467B807B88042B24D07B8809E12A
:1034D8003B894EF6EE62934214D18448FDF76AFAAE
:1034E80003467B807B88042B01D07B88FAE08048E8
:1034F8000021FDF7A3FA03467B807B88042B0AD0C2
:103508007B88EFE000F06CF903467B807B88042B16
:1035180001D07B88E6E0E4E03B89002B4BD1002317
:10352800FB8130E0734B1B889AB2FB89724931F8F2
:1035380013309A4201D1FB89BB81FA89B7F90C3063
:103548009A421DD0FB896C4A32F8133018466B49F1
:1035580000F0D8F80346BB80BB88012B10D0FB894C
:10356800654A32F81320654B1B881046194600F04F
:10357800A5F90346FB80FB88042B01D0FB88B1E04A
:10358800FB890133FB81FB89112BCBD957480021DB
:10359800FDF754FA03467B807B88042B01D07B8897
:1035A800A0E05348FDF706FA03467B807B88042B8E
:1035B80024D07B8896E03B894FF6FF72934214D162
:1035C8004B48FDF7F7F903467B807B88042B01D035
:1035D8007B8887E045480021FDF730FA03467B8069
:1035E8007B88042B0AD07B887CE000F0F9F803463E
:1035F8007B807B88042B01D07B8873E071E03B895A
:10360800002B08D100F0ECF803467B807B88042B64
:103618005CD07B8866E03B894FF6FF72934209D104
:103628003348FDF7C7F903467B807B88042B4DD0D0
:103638007B8857E00023FB8130E0314B1B889AB22E
:10364800FB892D4931F813309A4201D1FB89BB819E
:10365800FA89B7F90C309A421DD0FB89264A32F80C
:1036680013301846254900F04DF80346BB80BB8847
:10367800012B10D0FB89204A32F813201F4B1B88DE
:103688001046194600F01AF90346FB80FB88042B04
:1036980001D0FB8826E0FB890133FB81FB89112BD4
:1036A800CBD913480021FDF7C9F903467B807B88F5
:1036B800042B01D07B8815E00C48FDF77BF9034605
:1036C8007B807B88042B01D07B880BE009E000F02D
:1036D80087F803467B807B88042B01D07B8801E038
:1036E80000BF042318461037BD4680BD00000208FD
:1036F8000008020806000208140200202C0300201B
:103708000608020880B586B000AF03463960FB8022
:103718000023FB8145F25553BB810123FB821D4BDE
:103728003B611C4BBB60002000F082F80346FB8124
:10373800FB89AB2B01D1AB2327E0FB89DB0203F12B
:10374800006303F50033BB60FB890133DB021A46D3
:10375800114B13443B6112E03B691B88BB81BA895A
:10376800FB889A4208D13B69023B1B889AB23B68A6
:103778001A800023FB8207E03B69043B3B61BB687E
:103788009A1C3B699A42E7D3FB8A18461837BD460C
:1037980080BD00BF00000108FEFF010880B584B0AD
:1037A80000AF03460A46FB801346BB800023FB811B
:1037B800FA88BB881046194600F080F80346FB815A
:1037C800FB89802B07D1FA88BB881046194600F080
:1037D800CFF80346FB81FB8918461037BD4680BDEC
:1037E80080B582B000AF0423FB710F48FDF7E2F803
:1037F8000346FB71FB79042B01D0FB7910E00A48E2
:103808000021FDF71BF90346FB71FB79042B01D05E
:10381800FB7905E00548FDF7CDF80346FB71FB7918
:1038280018460837BD4680BD000002080008020897
:1038380080B485B000AF0346FB710623FB810623E5
:10384800BB811C4B1B88FB811B4B1B88BB81FB79F5
:10385800002B1BD0012B25D1BB89002B08D1FB895C
:103868004EF6EE62934201D100231CE001231AE0D8
:10387800FB89002B08D1BB894EF6EE62934201D139
:10388800012310E000230EE0AB230CE0FB89002BA2
:1038980001D1002307E0BB89002B01D1012302E0FD
:1038A800AB2300E0002318461437BD465DF8047BBF
:1038B800704700BF000002080008020880B586B003
:1038C80000AF03460A46FB801346BB800423FB7403
:1038D80000233B82234B7B61234BFB600120FFF7D6
:1038E800A7FF03463B823B8AAB2B01D1AB2334E0D5
:1038F8003B8ADB0203F1006303F500337B613B8AFB
:103908000133DB021A46194B1344FB6020E07B6944
:103918001B68B3F1FF3F18D1BB8878691946FDF7DA
:103928008DF80346FB74FB7C042B02D0FB7C9BB216
:1039380013E07B699A1CFB8810461946FDF77EF850
:103948000346FB74FB7C9BB207E07B6904337B6115
:103958007A69FB689A42DAD3802318461837BD463D
:1039680080BD00BF00000108FF070108FEFF010835
:1039780080B588B000AF03460A46FB801346BB807B
:1039880004237B75434BFB61434BBB6100237B8264
:103998000023FB8200233B820023FB810020FFF7EA
:1039A80047FF03467B827B8A012B04D13B4BFB619B
:1039B8003B4BBB6109E07B8A002B04D1384BFB6190
:1039C800364BBB6101E0AB2360E0F8694EF6EE616F
:1039D800FDF734F803467B757B7D042B02D07B7D95
:1039E8009BB253E0FA88BB8810461946FFF766FF7A
:1039F80003463B823B8A042B01D03B8A46E00023E6
:103A0800FB8227E0FB8A274A32F81330FA889A4269
:103A18001DD0FB8A234A32F8133018462249FFF793
:103A280071FE0346FB81FB89012B10D0FB8A1D4ADE
:103A380032F813201C4B1B8810461946FFF73EFF2F
:103A480003463B823B8A042B01D03B8A1EE0FB8A5B
:103A58000133FB82FB8A112BD4D9B869FCF7AAFF82
:103A680003467B757B7D042B02D07B7D9BB20DE0EA
:103A7800F8690021FCF7E2FF03467B757B7D042B88
:103A880002D07B7D9BB201E07B7D9BB2184620373C
:103A9800BD4680BDFF0301080000010800000208C0
:103AA80000080208140200202C03002080B483B010
:103AB80000AF03463960FB7197F90730002B0BDA2A
:103AC8000D49FB7903F00F03043B3A68D2B21201A7
:103AD800D2B20B441A7609E0084997F907303A68D8
:103AE800D2B21201D2B20B4483F800230C37BD4680
:103AF8005DF8047B704700BF00ED00E000E100E0E6
:103B080080B582B000AF78607B68013BB3F1807FFD
:103B180001D301230FE00A4A7B68013B53604FF051
:103B2800FF300F21FFF7C2FF054B00229A60044BBC
:103B380007221A60002318460837BD4680BD00BF1B
:103B480010E000E080B582B000AF1D233B71012377
:103B58007B710023BB710123FB713B1D1846FCF7E9
:103B6800CFFC144B1B68144AA2FB03239B0918467D
:103B7800FFF7C6FF4FF0FF300021FFF797FF17232D
:103B88003B710E237B710023BB710123FB713B1D2D
:103B98001846FCF7B5FC09233B710F237B71002302
:103BA800BB710123FB713B1D1846FCF7A9FC0837C4
:103BB800BD4680BD0C000020D34D621080B582B098
:103BC80000AFFDF785F94FF48030FDF7AFF9FDF749
:103BD800EBF90346FB71FB79012B28D11020FCF788
:103BE800B5FE0220FCF788FE0020FDF7C7FA00208A
:103BF800FDF734FB4FF48060FDF7FCFA4FF480309A
:103C08004FF4E011FDF7F8F90120FDF763FA00BF62
:103C18003920FDF767FC0346002BF9D00220FDF799
:103C280073FA00BFFDF79AFA0346082BFAD1083752
:103C3800BD4680BD80B500AFFEF7C0FBFFF7BEFFF5
:103C48001D200121FDF7A6FB4FF40040FDF73AFBCC
:103C580001200121FDF766FB4FF480500121FDF79B
:103C680099FB4FF480400121FDF7CCFB0220012194
:103C7800FDF7C8FB7E20FDF735FC0346002B01D07D
:103C8800FDF790FC80BD00BF80B584B000AF0F2366
:103C98003B801823FB700323BB703B467F481946C3
:103CA800FCF75AFF4FF470733B803B467C4819463B
:103CB800FCF752FFA0233B801823FB703B46774854
:103CC8001946FCF749FF40233B800423FB703B4621
:103CD80072481946FCF740FF10233B804823FB70CD
:103CE8003B4670481946FCF737FF02233B801023F8
:103CF800FB703B466B481946FCF72EFF04233B80BC
:103D08001023FB703B4667481946FCF725FF4FF424
:103D180020433B801823FB703B4661481946FCF75B
:103D28001BFF4FF480433B800423FB703B465C48F9
:103D38001946FCF711FF4FF480533B801023FB70AA
:103D48003B4657481946FCF707FF4FF480533B8022
:103D58004823FB703B4651481946FCF7FDFE80237B
:103D68003B801023FB703B464E481946FCF7F4FE97
:103D780001233B800023FB703B4649481946FCF76A
:103D8800EBFE02233B803B4645481946FCF7E4FE20
:103D980010233B803B4641481946FCF7DDFE4FF4B3
:103DA80080633B800423FB703B463C481946FCF784
:103DB800D3FE4FF400733B801023FB703B4637481B
:103DC8001946FCF7C9FE40233B800423FB703B46A1
:103DD80034481946FCF7C0FE08233B800423FB70D7
:103DE8003B462F481946FCF7B7FE4FF400733B805B
:103DF8000423FB703B462B481946FCF7ADFE022016
:103E08000621FCF7D3FF40237B6000233B720C2381
:103E18007B720123BB723B1D1846FCF73BFC01205B
:103E28000321FCF7C3FF08237B6000233B720C23AC
:103E38007B720123BB723B1D1846FCF72BFC002349
:103E4800FB7325E0FB7B184A4FF4CA7101FB03F3AF
:103E5800134403F5C87300221A700023BB730DE0E6
:103E6800FA7BBB7B1049652000FB02F213444FF03C
:103E7800000241F82320BB7B0133BB73BB7B632B60
:103E8800EED9FB7B094A0321D154FB7B0133FB7339
:103E9800FB7B012BD6D91037BD4680BD00080140F9
:103EA800000C014000100140F0080020EC08002040
:103EB80090B585B000AF0820FCF794FC0346002BB2
:103EC8003AD000F075F90346184602F0B9FF0346E8
:103ED800FB6000F097F90346184602F0B1FF03466D
:103EE800BB60174B93F89031DBB20133FB71FB7960
:103EF800144AA2FB03125209642101FB02F29B1A25
:103F0800FB71114B1B6801330F4A13600C4AFB7994
:103F180082F89031FC79F8680C4903F09DF8034663
:103F28001846B96802F0DCFE03461A46044B43F80B
:103F380024200820FCF7C6FC1437BD4690BD00BFFE
:103F4800F00800201F85EB513003002000007A4460
:103F580090B585B000AF4020FCF744FC0346002B29
:103F68003CD000F025F90346184602F069FF0346E5
:103F7800FB6000F047F90346184602F061FF03466C
:103F8800BB60184B93F82433DBB20133FB71FB7928
:103F9800154AA2FB03125209642101FB02F29B1A83
:103FA800FB71124B1B680133104A13600D4AFB79F1
:103FB80082F82433FC79F8680D4903F04DF803467C
:103FC8001846B96802F08CFE03461946054A04F102
:103FD800650342F823104020FCF774FC1437BD46F3
:103FE80090BD00BFF00800201F85EB51340300206E
:103FF80000007A4480B586B000AF0023BB804FF440
:104008008273FB8000233B8100237B810023BB81DB
:104018004FF40073FB8110233B8200237B8207232C
:10402800BB824FF40073FB813B1D0A481946FDF71C
:10403800C7FA3B1D08481946FDF7C2FA0548012191
:10404800FDF7A6FB04480121FDF7A2FB1837BD4682
:1040580080BD00BF003001400038004080B584B00A
:1040680000AF0346FB71FA23FB81FB799BB2114831
:104078001946FDF7CFFB06E0FB89013BFB81FB8975
:10408800002B00D106E00B480121FDF70DFC03468B
:10409800002BF1D0FB89002B05D00648FDF7E0FB8B
:1040A8000346FB7101E00023FB71FB7918461037CA
:1040B800BD4680BD0030014080B584B000AF0346E6
:1040C800FB71FA23FB81FB799BB21D481946FDF76A
:1040D800A1FB06E0FB89013BFB81FB89002B00D19A
:1040E80006E017480121FDF7DFFB0346002BF1D05E
:1040F80013484021FDF7D8FB03467B731048202165
:10410800FDF7D2FB03463B730D481021FDF7CCFBAE
:104118000346FB720A480821FDF7C6FB0346BB723B
:10412800FB89002B05D00648FDF79AFB0346FB7177
:1041380001E00023FB71FB7918461037BD4680BDAE
:104148000038004080B584B000AF154B1B68154A95
:10415800A2FB03231B0D9BB2013B9AB2124B1A80A0
:104168004BF67F333B81104B1B88BB8000237B8140
:104178000023FB803B1D0D481946FDF7E5FB0B4866
:104188000121FDF7DBFC094801210122FDF76AFD49
:1041980006480121FDF7BAFE1037BD4680BD00BFB5
:1041A8000C000020819F5E16200C002000040040B7
:1041B80090B583B000AF104B9B68184602F040FEE4
:1041C80004460E4B1B68184602F03AFE03460C489C
:1041D800194602F041FF03462046194602F088FEC0
:1041E8000346184603F070F80346FB80FB88184620
:1041F8000C37BD4690BD00BF10E000E00C00002069
:104208000024744980B483B000AF054B1B687B6001
:104218007B6818460C37BD465DF8047B704700BFC5
:104228003803002080B483B000AF0023FB7108E09E
:10423800FB79084A4FF0000142F82310FB7901335B
:10424800FB71FB79012BF3D90C37BD465DF8047B74
:10425800704700BF180C002080B582B000AF4FF047
:1042680000033B600023FB710CE0FB790A4A52F81B
:1042780023303868194602F033FD03463B60FB796A
:104288000133FB71FB79012BEFD9FFF7CBFF3B68BB
:1042980018460837BD4680BD180C002080B582B08E
:1042A80000AF01F0E9FA78607868254902F0D4FE99
:1042B80003461846224902F01BFE0346184603F03F
:1042C80003F80346DAB21F4B1A70FFF7C5FF3860D0
:1042D80038681B4902F0C0FE03461846184902F028
:1042E80007FE0346184602F0EFFF0346DAB2164B04
:1042F8001A703868796802F0F3FC034618461049CA
:1043080002F0AAFE034618460D4902F0F1FD0346E5
:10431800184602F0D9FF0346DAB20C4B1A700B4B61
:104328001B78DAB20A4B1B78DBB29A4204D9074BE6
:104338001B78DAB2064B1A700837BD4680BD00BF3D
:104348000000C8424103002040030020420300202F
:104358004303002080B400AF034B1B78DBB2184640
:10436800BD465DF8047B70474203002090B587B0D6
:1043780000AF3B1D7B614C4B1B683B613B690133C4
:104388003B61494A3B691360FFF73CFF0346184607
:1043980002F056FD0446FFF70BFF0346184602F0ED
:1043A8004FFD03464148194602F098FC034618465B
:1043B8003E4902F051FE03462046194602F090FCA1
:1043C8000346FB6039693A4BA3FB0123DA0813461D
:1043D8009B0013445B00CA1A002A05D17B6904229A
:1043E8001A70786901F06AF93B6903F02803002B19
:1043F80001D100F009FB39692D4BA3FB01239A0970
:1044080013469B0013441B01CA1A002A07D17B6973
:1044180005221A70786901F051F900F03FFEFFF7A4
:10442800F1FE0346184602F00BFD0446FFF7C0FEF6
:104438000346184602F004FD03461C48194602F0DC
:104448004DFC03461846194902F006FE034620466D
:10445800194602F045FC0346BB60B868F96802F0EB
:10446800F9FE0346002B0ED0124B1C68B868F96899
:1044780002F034FC03462046194602F031FC03469C
:104488001A460C4B1A603A690B4BA3FB02135B09E3
:10449800642101FB03F3D31A002B01D1FFF7FEFEC1
:1044A8001C37BD4690BD00BF3803002000007A4489
:1044B800CDCCCCCC180C00201F85EB5190B583B027
:1044C80000AFFFF79FFE0346184602F0B9FC04460A
:1044D800FFF76EFE0346184602F0B2FC03462D486D
:1044E800194602F0FBFB034618462A4902F0B4FDC0
:1044F80003462046194602F0F3FB03467B60264B31
:104508001B8A9BB203F00103002B0CD0224A224BDA
:104518001B8A9BB223F001039BB213821F4B1B68BB
:1045280001331E4A1360FFF76DFE0346184602F07A
:1045380087FC0446FFF73CFE0346184602F080FC61
:1045480003461448194602F0C9FB034618461149A8
:1045580002F082FD03462046194602F0C1FB0346DD
:104568003B603868796802F075FE0346002B0ED070
:104578000B4B5C683868796802F0B0FB034620464C
:10458800194602F0ADFB03461A46054B5A600C3734
:10459800BD4690BD00007A44000400403C03002062
:1045A800180C002080B500AF4FF080400121FDF7C6
:1045B800FDFB0346002B04D04FF080400121FDF79E
:1045C800A5FC80BD80B485B000AF78600B4B1B683C
:1045D8000B4AA2FB03231B0D7A6802FB03F301338A
:1045E800FB60FB681A4600BFB2F10102FBD1FA601A
:1045F8001437BD465DF8047B704700BF0C000020EF
:1046080083DE1B4380B582B000AF0346FB80054ABA
:10461800FB881381FB881846FEF780F80837BD46EB
:1046280080BD00BF8407002080B582B000AF144B66
:104638009A8B3B1D10461946FFF764F80346FB7139
:10464800FB79002B14D1BB8841F2542293420FD13D
:104658000B4B5A8B3B1D10461946FFF753F8034680
:10466800FB71FB79002B02D03E23BB8002E001E006
:104678003E23BB80BB8818460837BD4680BD00BFB7
:104688001402002080B485B000AF0346FB710023FC
:10469800FB73094B93F82330DAB2FB791340DBB292
:1046A800002B01D00123FB73FB7B18461437BD4652
:1046B8005DF8047B704700BF8407002080B483B096
:1046C80000AF03460A46FB711346BB71BB79012B49
:1046D8000AD10F4B93F82330DAB2FB791343DAB2DD
:1046E8000B4B83F823200DE0094B93F82330DBB202
:1046F800DAB2FB79DB43DBB21340DBB2DAB2044B4C
:1047080083F823200C37BD465DF8047B704700BF53
:104718008407002080B483B000AF03460A46FB71CB
:104728001346BB71BB79012B0AD10F4B93F822308A
:10473800DAB2FB791343DAB20B4B83F822200DE08F
:10474800094B93F82230DBB2DAB2FB79DB43DBB2F8
:104758001340DBB2DAB2044B83F822200C37BD4693
:104768005DF8047B704700BF8407002080B400AF69
:10477800044B93F82430DBB21846BD465DF8047B41
:10478800704700BF8407002080B586B000AF03469D
:10479800FB71364B93F82030FB750220FEF718F8B2
:1047A8000346BB75314B93F82530DBB25A1C304BAE
:1047B8001340002B03DA013B63F00F0301337B75D1
:1047C8002A4A7B7D82F82530BB7D1B01294A82FB62
:1047D80003125211DB17D31ADBB2013BDBB203F031
:1047E8000F03BB75FB7D0133204A927FD2B293FB46
:1047F800F2F102FB01F29B1ADAB21C4B83F820207B
:104808001A4B1A68FB7D5B0013441B887B82FB7D77
:104818001B01DAB27B7D1343DBB2DBB23B73B7F922
:10482800123003F47F431B12DBB27B737B8ADBB24B
:10483800BB730E4B5B7FDBB21A460C4B13449B7D5C
:10484800DBB21B020B4AA2FB03235B09DBB2013B71
:104858007B747B7CFB7307F10C02FB7910461946CD
:10486800FDF7EEFE1837BD4680BD00BF8407002067
:104878000F0000801F85EB5180B582B000AF034662
:10488800FB71204B5A68FB7910461946FDF758FF13
:104898001C4B5A681B4BDB7FDBB2023B13441B7873
:1048A8001B09DAB2174B5A76164B5B68154AD27F4A
:1048B800D1B20A46023A1A4402390B441B7803F073
:1048C8000F03DBB213700F4B5A680E4BDB7FDBB262
:1048D800013B13441B789B09DAB20A4B83F8232067
:1048E800084B5B68074AD27FD1B20A46013A1A449C
:1048F80001390B441B7803F03F03DBB21370083710
:10490800BD4680BD8407002080B582B000AF2A4B29
:1049180032229A82284B0122DA76274B01225A77D3
:10492800254B002283F82020FFF77EFE03461A4617
:10493800214B1A81204B1B899BB21846FFF762FE58
:104948001D4B002283F822201B4B002283F82320D2
:10495800194B00221A77184B002283F824200023D1
:10496800FB7107E0FB79144A134464229A75FB79BA
:104978000133FB71FB79022BF4D90F4B00225A76D5
:104988000D4B00229A760C4B00221A820A4B4FF0EC
:104998000002DA60084B00225A82074B002283F893
:1049A8002520054B002283F82720034B022283F899
:1049B80026200837BD4680BD8407002080B483B018
:1049C80000AF0F4B5B7FDBB2002B0FD00C4B5B7F34
:1049D800DBB25A1E0B4B83FB0231D317C91A0B46A5
:1049E8005B000B44D11A0B46FB7101E00223FB71FB
:1049F800FB7918460C37BD465DF8047B704700BF4D
:104A0800840700205655555590B583B000AF9D4B8F
:104A1800DB7EFB710223BB719A4BDB7EDBB29A4AC9
:104A280052F823200132984941F82320FB79013BB1
:104A3800032B00F2198201A252F823F0554A00080C
:104A4800A74A0008A14D0008974B00088D4B93F822
:104A58002130DBB2012B21D1FFF7B0FF03461A4604
:104A6800884B5A77874B5B7FDAB2BB791046194679
:104A7800FDF72EFEBB791846FDF77AFE814B002222
:104A880083F824207F4B32229A827E4BDB7EDAB277
:104A98007E4B1A707B4B0222DA76E6E1E5E1794B30
:104AA8009B8A9BB2013B9AB2764B9A82BB79184695
:104AB800FDF772FE03467B717B79012B4BD1714B5D
:104AC800012283F824206F4B32229A826D4B5B7E41
:104AD800DAB26C4B9A766B4B1B8A9BB24FF6FF721D
:104AE800934206D0674B1B8A9BB201339AB2654B3F
:104AF8001A82BB791846FFF7BFFE0220FFF7C2FDF6
:104B08000346012B07D15F4B012283F827205D4B19
:104B18000322DA763AE05B4B5B7FDBB25A1C5C4BD4
:104B280083FB0231D317C91A0B465B000B44D11A19
:104B3800CAB2544B5A77534B5B7FDAB2BB791046F3
:104B48001946FDF7C5FDBB791846FDF711FE4D4B1B
:104B58000422DA7689E14B4B9B8A9BB2002B15D154
:104B6800BB791846FDF704FE464B32229A82FFF7BE
:104B780025FF03461A46434B5A77424B5B7FDAB20E
:104B8800BB7910461946FDF7A3FD6EE16DE13D4B7B
:104B98005B7F3B713B4B9B8A9BB2013B9AB2394B83
:104BA8009A82BB791846FDF7F7FD03467B717B793E
:104BB800012B40F0CC80BB791846FFF75DFE314BE6
:104BC80032229A822F4B1B8A9BB24FF6FF72934276
:104BD80006D02C4B1B8A9BB201339AB2294B1A82FE
:104BE800284B5B7EDBB21A46264B9B7EDBB2013339
:104BF80003F00F039A4229D0224B5B7EDAB2214B95
:104C08009B7EDBB29A4210D91E4B5B7EDBB21A4602
:104C18001C4B9B7EDBB2D11A1A4B5B8A9AB28BB2C1
:104C280013449AB2174B5A8210E0164B9B7EDBB2A4
:104C3800C3F10F03134A527ED2B29918114B5B8A03
:104C48009AB28BB213449AB20E4B5A820D4B5B7ECA
:104C5800DAB20C4B9A760220FFF714FD0346012BBB
:104C680018D1084B012283F82720064B022283F82B
:104C78002620044BDB7EDAB2044B1A70014B032268
:104C8800DA7623E0840700202C0C0020400C00205A
:104C980056555555764B5B7FDBB25A1C754B83FBDB
:104CA8000231D317C91A0B465B000B44D11ACAB29A
:104CB8006F4B5A776E4B5B7FDAB2BB791046194659
:104CC800FDF706FDBB791846FDF752FD684B1B8AB8
:104CD8009BB2322B5FD1664B5B8A9BB2644A128AC5
:104CE80092B213449AB2624B1A82614B5B8A9BB2AE
:104CF800184602F0A5F804465D4B1B8A9BB218467D
:104D080002F09EF803462046194602F0A5F903462C
:104D18001846594902F0ECF803461A46544BDA6033
:104D2800534B00225A82524B00221A823C79504B34
:104D3800DB685148194601F0D1FF0346184602F0D6
:104D4800C3FA0346DAB24A4B23449A758DE0BB791D
:104D58001846FDF70DFD464B9B8A9BB2002B1AD1D6
:104D6800434B012283F82720414B022283F8262057
:104D78003F4B64225A823B793D4A134400229A757C
:104D88003B4B002283F82420394B32229A82384B3D
:104D98000222DA7669E068E0354B93F82730DBB217
:104DA800012B24D1324B93F82630DBB2002B09D0EB
:104DB8002F4B93F82630DBB2013BDAB22C4B83F849
:104DC800262050E02A4B002283F82720284B022275
:104DD80083F82620BB791846FDF74AFC03200021FA
:104DE800FFF76CFCBB791846FFF7CEFC3DE0BB79BA
:104DF8001846FDF751FC03467B711D4B1B7FDBB248
:104E08000133DAB21A4B1A77194B1B7FDBB2312BFD
:104E180002D87B79012B26D1154B00221A77002066
:104E28000021FFF777FC124B5B7FDBB25A1C114B5A
:104E380083FB0231D317C91A0B465B000B44D11A06
:104E4800CAB20B4B5A770A4B5B7FDAB2BB79104672
:104E58001946FDF73DFCBB791846FDF789FC044B64
:104E68000422DA7601E000E000BF0C37BD4690BDB1
:104E780084070020565555550000C84280B485B0B7
:104E880000AFF8607A601A460B46FB721346BB7295
:104E98000A4AFB681360094A7B685360074AFB7A31
:104EA8009377064ABB7AD377044B012283F82120F3
:104EB8001437BD465DF8047B704700BF84070020A7
:104EC80080B584B000AF0346FB800023FB7300F07D
:104ED80041F80346BB811D4B93F84230DBB2002BEF
:104EE8002AD1FB88052B27D0FA88BB899A4223D080
:104EF800174B5A8BFB8810461946FEF74FFC0346A2
:104F0800FB73FB7B042B08D1114B9B8B184641F29A
:104F18005421FEF743FC0346FB73FB7B042B06D1AD
:104F28000A4AFB881381FB881846FDF7F7FB074BF5
:104F3800012283F8422006E0044AFB881381FB889B
:104F48001846FDF7EBFB1037BD4680BD040700206F
:104F58001402002080B582B000AF144B9A8B3B1D21
:104F680010461946FEF7CEFB0346FB71FB79002B72
:104F780014D1BB8841F2542293420FD10B4B5A8B68
:104F88003B1D10461946FEF7BDFB0346FB71FB7936
:104F9800002B02D00523BB8002E001E00523BB8083
:104FA800BB8818460837BD4680BD00BF14020020E4
:104FB80080B400AF044B93F84130DBB21846BD46CD
:104FC8005DF8047B704700BF0407002080B500AF80
:104FD800064BDB680648194601F080FE0346184672
:104FE80002F072F90346DBB2184680BD04070020C0
:104FF8000000C84280B500AFFFF7E8FF0346184637
:1050080080BD00BF80B485B000AFF8607A601A46F2
:105018000B46FB721346BB720B4AFB6813600A4AC5
:105028007B685360084AFB7A82F83730064ABB7AB5
:1050380082F83830044B012283F83A201437BD46F1
:105048005DF8047B704700BF0407002080B483B07C
:1050580000AF0023FB7113E00023BB710AE0FA796B
:10506800BB790D49520013440B4400225A70BB7996
:105078000133BB71BB79012BF1D9FB790133FB718A
:10508800FB79092BE8D9044B03221A700C37BD466B
:105098005DF8047B704700BFB803002080B483B07C
:1050A80000AF144B1B78FB71FB79134A52F823208D
:1050B8000132114941F82320FB79013B032B13D816
:1050C80001A252F823F000BFF1500008E150000897
:1050D800E9500008F1500008064B03221A7004E05A
:1050E800044B04221A7000E000BF0C37BD465DF87F
:1050F800047B7047B8030020440C002080B483B0C0
:1051080000AF03460A46FB711346BB7172B6FB79C2
:10511800092B2AD8184B1B78DBB2042B25D1BB7975
:10512800012B1CD1FB79144A5B00134401225A70ED
:10513800FB79114A5B0013449B78DBB2FF2B14D038
:10514800FA79FB790C495B000B449B78DBB201339D
:10515800D8B2094953000B4402469A7005E0FB791E
:10516800054A5B00134400225A7062B60C37BD46EC
:105178005DF8047B704700BFB803002080B500AF1E
:10518800FEF758FDFEF76CF9FEF7DCFFFEF7DAFCD8
:10519800FEF77AFDFEF72EFFFBF7FAFBFEF768F93C
:1051A800FFF754FF0220FDF731FA00BFFFF72AF896
:1051B8000346C82BFAD9FFF7A7FB80BD80B584B09A
:1051C80000AF3B46BB601C4B00221A701A4B0022F2
:1051D8005A70194B00229A70184B00221A70174BFC
:1051E80000225A70154B00229A70154B00221A7033
:1051F800134B00225A70124B00229A700023FB7343
:1052080008E0FB7B0F4A4FF09F4142F82310FB7BDD
:105218000133FB73FB7B2D2BF3D90B4B2D221A701B
:10522800BB682C221A70BB6806229A70B86800F016
:1052380089FA1037BD4680BDD80C0020580C0020D4
:10524800740C0020880400209005002080B485B0EC
:1052580000AF78600023FB730023BB6046E0294B56
:105268001B78DBB25A1C284B83FB0231D317C91AAF
:105278000B465B000B44D11ACAB2224B1A70214B61
:105288001B78DBB2012B12D0022B1FD0002B2CD1A4
:105298001E4B9B78DBB2002B08D01C4B1B78DBB273
:1052A800DB001B4A1344BB600123FB731EE0194B50
:1052B8009B78DBB2002B08D0164B1B78DBB21A4662
:1052C800154B1344BB600123FB730FE0134B9B7812
:1052D800DBB2002B08D0114B1B78DBB2DB00104A85
:1052E8001344BB600123FB7300E000BFFB7B002B72
:1052F800B5D07B68BA681A601437BD465DF8047B80
:10530800704700BF4403002056555555D80C00205F
:1053180060050020580C002040050020740C002077
:10532800AC07002090B585B000AF7860FEF76AFF43
:105338000346184601F084FD0446FEF739FF03468C
:10534800184601F07DFD03469348194601F0C6FC56
:1053580003461846904901F07FFE03462046194649
:1053680001F0BEFC0346FB607B681B78013B2B2BDE
:1053780000F2828001A252F823F000BF8B5400088B
:105388008B5400088B540008355400083D5400081D
:105398004554000845540008455400084554000881
:1053A8004554000845540008455400084554000871
:1053B8004554000845540008455400084554000861
:1053C8004554000845540008455400084554000851
:1053D8004554000845540008455400084554000841
:1053E8004554000845540008455400084554000831
:1053F8004554000845540008455400084554000821
:105408004554000845540008455400084554000810
:1054180045540008455400088154000845540008C4
:10542800455400084554000845540008786800F0C1
:1054380069FD27E0786800F065FD23E07B689B78CC
:10544800013B052B16D801A252F823F07D54000821
:105458007D5400086D5400087D5400087D540008F0
:1054680075540008786800F04DFD04E0786800F095
:1054780049FD00E000BF05E007200121FFF73EFEDF
:1054880000E000BFFEF7BEFE0346184601F0D8FC58
:105498000446FEF78DFE0346184601F0D1FC03468C
:1054A8003D48194601F01AFC034618463A4901F0EE
:1054B800D3FD03462046194601F012FC0346BB60A3
:1054C800B868F96801F0C6FE0346002B0BD07B686C
:1054D8001B781C46B868F96801F000FC03461A46B8
:1054E8002E4B43F824207B681B781C467B681B786E
:1054F8001A462B4B53F822207B681B781946274BFA
:1055080053F821301046194601F0EAFB03461A46C3
:10551800234B43F824207B681B781A461F4B53F80B
:1055280022207B681B7819461E4B53F82130104601
:10553800194601F099FE0346002B0BD07B681B78B7
:1055480019467B681B781A46144B53F82230154AC3
:1055580042F821307B681B781A46104B53F82220FA
:105568007B681B781946104B53F8213010461946B2
:1055780001F05CFE0346002B0BD07B681B781946B4
:105588007B681B781A46054B53F82230064A42F8C6
:1055980021301437BD4690BD00007A4494050020A0
:1055A8004C060020D00300208804002080B483B07B
:1055B80000AF3B4B1B78DBB2012B26D0022B48D027
:1055C800002B00D066E0374B9B78FB71FB79002BF2
:1055D8001AD072B6334B1B78DBB25A1C324B83FBA2
:1055E8000231D317C91A0B465B000B445B00D11A72
:1055F800CAB22C4B1A702B4B9B78DBB2013BDAB248
:10560800284B9A7062B645E044E0284B9B78FB71C2
:10561800FB79002B1CD072B6244B1B78DBB25A1CCA
:10562800234B82FB030153181911D317C91A0B46D0
:105638001B015B1A5B00D11ACAB21C4B1A701B4BB8
:105648009B78DBB2013BDAB2184B9A7062B621E064
:1056580020E0184B9B78FB71FB79002B19D0154B78
:105668001B78DBB25A1C144B83FB02131911D31796
:10567800C91A0B469B000B44DB00D11ACAB20D4B6A
:105688001A700C4B9B78DBB2013BDAB2094B9A706B
:10569800FFE700BF0C37BD465DF8047B704700BFCD
:1056A80044030020D80C0020ABAAAA2A580C0020DA
:1056B80089888888740C00206766666680B584B01F
:1056C80000AF78600023FB737B681B78043B012BD9
:1056D8002AD8194B9B78DBB21D2B20D8164B5B7848
:1056E800FB73FB7B15497A681278CA54FB7B5A1CFA
:1056F800134B82FB030153181911D317C91A0B4610
:105708001B015B1A5B00D11ACAB20B4B5A700A4BC9
:105718009B78DBB20133DAB2074B9A7009E00920B3
:105728000121FFF7EBFC04E008200121FFF7E6FC6C
:1057380000BF1037BD4680BD580C00204005002032
:105748008988888880B584B000AF78600023FB73AF
:105758007B681B78063B262B7FD801A252F823F0E2
:10576800055800080558000805580008055800089D
:10577800055800080558000805580008055800088D
:10578800055800080558000805580008055800087D
:10579800055800080558000805580008055800086D
:1057A800055800080558000805580008055800085D
:1057B800055800080558000805580008055800084D
:1057C800055800080558000805580008055800083D
:1057D800055800080558000805580008055800082D
:1057E80005580008055800086358000805580008BF
:1057F8000558000805580008055800081B4B9B78F9
:10580800DBB2272B24D8194B5B78FB73FB7B184A38
:105818007968DB0013440A4692E8030083E8030032
:10582800FB7B5A1C134B83FB02131911D317C91A9C
:105838000B469B000B44DB00D11ACAB20B4B5A70C3
:105848000A4B9B78DBB20133DAB2084B9A7009E055
:1058580009200121FFF752FC04E008200121FFF78D
:105868004DFC00BF1037BD4680BD00BF740C002042
:10587800AC0700206766666680B582B000AF4FF05F
:1058880000033B600023FB710CE0FB790A4A52F8E5
:1058980023303868194601F023FA03463B60FB7948
:1058A8000133FB71FB792D2BEFD900F007F83B682A
:1058B80018460837BD4680BD4C06002080B483B02A
:1058C80000AF0023FB7108E0FB79084A4FF00001A4
:1058D80042F82310FB790133FB71FB792D2BF3D9A7
:1058E8000C37BD465DF8047B704700BF4C060020AE
:1058F80080B582B000AF00237B60FFF75FFC09E052
:105908003B1D1846FFF7A2FC7B681846FFF70AFD07
:10591800FFF74CFE074B9B78DBB21A46064B9B7889
:10592800DBB21344054A9278D2B21344002BE7D174
:10593800E5E700BFD80C0020580C0020740C0020AC
:1059480080B500AF00F092FA80BD00BF80B483B08C
:1059580000AF03463960FB71FB79063B1A2B00F256
:10596800DA8001A252F823F0F7590008355A0008E6
:105978001B5A00084F5A0008DD5900081F5B000831
:10598800835A00089D5A0008B75A0008D15A0008DF
:10599800EB5A0008055B00081F5B00081F5B000846
:1059A8001F5B00081F5B00081F5B00081F5B0008E7
:1059B8001F5B00081F5B00081F5B00081F5B0008D7
:1059C8001F5B00081F5B00081F5B00081F5B0008C7
:1059D800695A0008534B9B689BB2524A9360514BDB
:1059E8009A683B681B0413434E4A936094E04D4BFE
:1059F8009B681B0C1B044B4A93604A4B9A683B6894
:105A08001343484A93603B689AB2464BA3F8442034
:105A180082E0444BDB689BB2424AD360414BDA6870
:105A28003B681B0413433F4AD36075E03D4BDB687A
:105A38001B0C1B043B4AD3603A4BDA683B681343A0
:105A4800384AD36068E0374B5B699BB2354A53618B
:105A5800344B5A693B681B041343324A53615BE079
:105A6800304B5B691B0C1B042E4A53612D4B5A6942
:105A78003B6813432B4A53614EE02A4B9B699BB208
:105A8800284A9361274B9A693B681B041343254AAC
:105A9800936141E0234B9B691B0C1B04214A9361D2
:105AA800204B9A693B6813431E4A936134E01D4BAF
:105AB800DB699BB21B4AD3611A4BDA693B681B044A
:105AC8001343184AD36127E0164BDB691B0C1B04F0
