:020000040800F2
:10000000000001205D0300081DA2000829A20008CD
:1000100031A2000839A2000841A200080000000037
:1000200000000000000000000000000055A20008D1
:1000300049A200080000000061A20008A9620008AF
:10004000D5040008D5040008D5040008D50400082C
:10005000D5040008D5040008D5040008D50400081C
:10006000D5040008D5040008D5040008D50400080C
:10007000D5040008D5040008D5040008D5040008FC
:10008000D5040008D5040008D5040008D5040008EC
:10009000D5040008D5040008D5040008D5040008DC
:1000A000D5040008D5040008D5040008D5040008CC
:1000B000D5040008ED630008D5040008D504000845
:1000C000D5040008D5040008D5040008D5040008AC
:1000D000D5040008D5040008D5040008D50400089C
:1000E000D5040008D5040008D5040008D50400088C
:1000F000D5040008D5040008D9640008D504000818
:10010000D5040008D5040008D5040008D50400086B
:10011000D5040008D5040008D5040008D50400085B
:10012000D5040008D5040008D5040008D50400084B
:1001300000000000000000000000000000000000BF
:1001400000000000000000000000000000000000AF
:10015000000000000000000000000000000000009F
:10016000000000000000000000000000000000008F
:10017000000000000000000000000000000000007F
:10018000000000000000000000000000000000006F
:10019000000000000000000000000000000000005F
:1001A000000000000000000000000000000000004F
:1001B000000000000000000000000000000000003F
:1001C000000000000000000000000000000000002F
:1001D000000000000000000000000000000000001F
:1001E0005FF8E0F180B58EB000AF04F0E9F8494B5C
:1001F000494A1A60494B484A1A60494B3B63494B8C
:10020000FB62494BBB62FB6A7B6207E07B6A1A1D9B
:100210007A623A6B111D396312681A60BA6A7B6A96
:100220009A42F3D83B4B1B68404A934204D13B4B64
:100230001B683F4A934200D0FEE73E4B364A1A60A5
:100240003D4B354A1A603D4B3B623D4BFB613B6A7F
:10025000BB6104E0BB691A1DBA6100221A60FA6929
:10026000BB699A42F6D8334B1B68002B03D1324B43
:100270001B68002B00D0FEE704F0AEF83A1D3B46A9
:100280001046194603F0E0FF2E4A2F4BD31A9B105D
:100290007B6100233B6107E02B4A3B6952F8233026
:1002A00098473B6901333B617A693B699A42F3DCC9
:1002B000264A274BD31A9B107B6100233B6107E042
:1002C000234A3B6952F8233098473B6901333B612D
:1002D0007A693B699A42F3DC7A683B6810461946B2
:1002E00009F090FF78631B4A1B4BD31A9B10FB60ED
:1002F000FB68BB6008E0BB68013B174A52F823303B
:100300009847BB68013BBB60BB68002BF3DC786B94
:1003100003F056FF00000020BABADECA940A00209B
:10032000CCBF000800000020980A00207856341244
:1003300032547698980A0020CC130020980A0020A6
:10034000D013002004050008040500080405000877
:1003500004050008040500080405000880B500AF86
:10036000FFF740FF80B400AF00BEFEE71EF0040FB1
:100370000CBFEFF30880EFF309807146524A104733
:1003800080B588B002AF78603960184B5B6B7B61D9
:10039000164B9B6B3B61154B9B6AFB60134B1B6BB6
:1003A00003F00203002B10D0104BDB6A002B0CDA99
:1003B00078684BF6AB6104F0ABF80346002B04D031
:1003C0000A4B4FF00042DA620CE0094803F05EFF8E
:1003D0003B6800937868F9687A693B6904F002F831
:1003E00000BEFEE71837BD4680BD00BF00ED00E04F
:1003F00068BF000880B400AF00BEFEE71EF0040F27
:100400000CBFEFF30880EFF3098071462F4A1047C5
:1004100080B588B002AF786039600B4B5B6B7B6155
:10042000094B9B6B3B61084B9B6AFB60074803F0E1
:100430002DFF3B6800937868F9687A693B6903F09F
:10044000D1FF00BEFEE700BF00ED00E078BF00086E
:100450001EF0040F0CBFEFF30880EFF30980714624
:100460001B4A104780B588B002AF786039600B4BEB
:100470005B6B7B61094B9B6B3B61084B9B6AFB6031
:10048000074803F003FF3B6800937868F9687A69CE
:100490003B6903F0A7FF00BEFEE700BF00ED00E0F0
:1004A00084BF000880B400AF00BEFEE780B400AF98
:1004B00000BEFEE780B400AF00BEFEE780B400AF30
:1004C000BD465DF8047B70478103000811040008F5
:0C04D0006504000880B400AF00BEFEE729
:1004DC00CCBF000800000020980A0020CCBF000808
:1004EC000000000000000000980A0020D01300203B
:0804FC000000000000000000F8
:1005080080B586B000AF786000237B6100233B6133
:100518000F23FB607B68DB78002B07D07B68DB78D8
:10052800012B03D03248752103F09EFE7B685B786F
:100538000F2B03D92E48762103F096FE7B689B7813
:100548000F2B03D92A48772103F08EFE7B68DB78CE
:10055800002B3AD0274BDB68DB4303F4E0631B0A2C
:100568007B617B69C3F104033B617B69FA6822FA0A
:1005780003F3FB607B685B781A463B6902FA03F376
:100588007B617B689B781A46FB6813407A69134342
:100598007B617B691B017B61174A7B681B787969E2
:1005A800C9B213440A4683F80023134A7B681B78B0
:1005B8005B09DBB218467B681B7803F01F03012137
:1005C80001FA03F342F820300FE00B497B681B78EF
:1005D8005B09DBB218467B681B7803F01F03012216
:1005E8009A4000F1200341F823201837BD4680BD0A
:1005F800B0BB000800ED00E000E100E080B582B08B
:1006080000AF78607B681F4A93420BD07B681E4A14
:10061800934207D07B681D4A934203D01C48BC21F3
:1006280003F022FE7B68174A93420AD14FF4007008
:10063800012101F0CFFB4FF40070002101F0CAFB4B
:100648001CE07B68104A93420AD14FF48060012174
:1006580001F0C0FB4FF48060002101F0BBFB0DE00E
:100668007B680A4A934209D14FF40040012101F006
:10067800B1FB4FF40040002101F0ACFB0837BD4648
:1006880080BD00BF0024014000280140003C01401B
:10069800D8BB000880B584B000AF7860396000230B
:1006A800FB600023FB727B68804A93420BD07B6817
:1006B8007F4A934207D07B687E4A934203D07E48A4
:1006C800E52103F0D1FD3B681B68002B30D03B6867
:1006D8001B68B3F5803F2BD03B681B68B3F5003F20
:1006E80026D03B681B68B3F5403F21D03B681B68A8
:1006F800B3F5802F1CD03B681B68B3F5A02F17D02B
:100708003B681B68B3F5C02F12D03B681B68B3F574
:10071800E02F0DD03B681B68B3F5002F08D03B686D
:100728001B68B3F5102F03D06348E62103F09CFD46
:100738003B681B79002B07D03B681B79012B03D042
:100748005D48E72103F090FD3B685B79002B07D0FB
:100758003B685B79012B03D05748E82103F084FDFF
:100768003B689B68002B43D03B689B68B3F5003F10
:100778003ED03B689B68B3F5802F39D03B689B68B7
:10078800B3F5C02F34D03B689B68B3F5002F2FD04A
:100798003B689B68B3F5202F2AD03B689B68B3F56C
:1007A800402F25D03B689B68B3F5602F20D03B686D
:1007B8009B68002B1CD03B689B68B3F5003F17D0A3
:1007C8003B689B68B3F5C02F12D03B689B68B3F5B4
:1007D800002F0DD03B689B68B3F5202F08D03B68ED
:1007E8009B68B3F5402F03D03348E92103F03CFD63
:1007F8003B68DB68002B08D03B68DB68B3F5006F0B
:1008080003D02D48EA2103F02FFD3B681B7C002B09
:1008180003D03B681B7C102B03D92748EB2103F03E
:1008280023FD7B685B68FB60FB6823F4702323F47B
:100838008073FB603B681A683B681B791B02134393
:10084800FA681343FB607B68FA685A607B689B68A8
:10085800FB60FA68194B1340FB603B68DA683B6839
:100868009B681A433B685B795B001343FA68134340
:10087800FB607B68FA689A607B68DB6AFB60FB68F0
:1008880023F47003FB603B681B7C013BDAB2FB7A04
:100898001343FB72FB7A1B05FA681343FB607B6802
:1008A800FA68DA621037BD4680BD00BF00240140F7
:1008B80000280140003C0140D8BB0008FDF7F1FFCB
:1008C80080B483B000AF78607B6800221A607B68D0
:1008D80000221A717B6800225A717B6800229A6094
:1008E8007B680022DA607B6801221A740C37BD46E7
:1008F8005DF8047B704700BF80B582B000AF7860B8
:100908000B46FB707B68174A93420CD07B68164AEB
:10091800934208D07B68154A934204D014484FF498
:100928009A7103F0A1FCFB78002B07D0FB78012B10
:1009380004D00F4840F2351103F096FCFB78002BE9
:1009480006D07B689B6843F001027B689A6005E0EB
:100958007B689B6823F001027B689A600837BD4674
:1009680080BD00BF0024014000280140003C014038
:10097800D8BB000880B582B000AF78600B46FB702A
:100988007B68154A934208D07B68144A934204D086
:10099800134840F24D1103F067FCFB78002B07D099
:1009A800FB78012B04D00E484FF4A77103F05CFCD0
:1009B800FB78002B06D07B689B6843F480727B68C9
:1009C8009A6005E07B689B6823F480727B689A6074
:1009D8000837BD4680BD00BF00240140003C0140EF
:1009E800D8BB000880B582B000AF78607B680C4A3D
:1009F80093420CD07B680B4A934208D07B680A4A22
:100A0800934204D009484FF4C27103F02DFC7B686F
:100A18009B6843F008027B689A600837BD4680BD32
:100A28000024014000280140003C0140D8BB0008D8
:100A380080B584B000AF78600023FB737B68104AF0
:100A480093420CD07B680F4A934208D07B680E4AC9
:100A5800934204D00D484FF4C97103F005FC7B683C
:100A68009B6803F00803002B02D00123FB7301E00D
:100A78000023FB73FB7B18461037BD4680BD00BFC3
:100A88000024014000280140003C0140D8BB000878
:100A980080B582B000AF78607B680C4A93420CD076
:100AA8007B680B4A934208D07B680A4A934204D079
:100AB80009484FF4D57103F0D7FB7B689B6843F076
:100AC80004027B689A600837BD4680BD0024014057
:100AD80000280140003C0140D8BB000880B584B024
:100AE80000AF78600023FB737B68104A93420CD0F8
:100AF8007B680F4A934208D07B680E4A934204D021
:100B08000D484FF4DC7103F0AFFB7B689B6803F082
:100B18000403002B02D00123FB7301E00023FB73C5
:100B2800FB7B18461037BD4680BD00BF002401403E
:100B380000280140003C0140D8BB000880B582B0C5
:100B480000AF78600B46FB707B68174A93420CD065
:100B58007B68164A934208D07B68154A934204D0B2
:100B680014484FF4E97103F07FFBFB78002B07D0A2
:100B7800FB78012B04D00F4840F2D31103F074FB2B
:100B8800FB78002B06D07B689B6843F4A0027B6847
:100B98009A6005E07B689B6823F4A0027B689A60F2
:100BA8000837BD4680BD00BF002401400028014031
:100BB800003C0140D8BB000880B584B000AF786025
:100BC800084611461A460346FB700B46BB7013468F
:100BD8007B700023FB600023BB607B68944A9342D0
:100BE8000CD07B68934A934208D07B68924A934220
:100BF80004D092484FF4167103F036FBFB78002BB3
:100C080037D0FB78012B34D0FB78022B31D0FB781E
:100C1800032B2ED0FB78042B2BD0FB78052B28D068
:100C2800FB78062B25D0FB78072B22D0FB78082BE6
:100C38001FD0FB78092B1CD0FB780A2B19D0FB7826
:100C48000B2B16D0FB780C2B13D0FB780D2B10D068
:100C5800FB780E2B0DD0FB780F2B0AD0FB78102BCE
:100C680007D0FB78112B04D0744840F2592103F0C7
:100C7800FBFABB78002B02D0BB78102B04D96F4845
:100C880040F25A2103F0F0FA7B78002B19D07B78D8
:100C9800012B16D07B78022B13D07B78032B10D036
:100CA8007B78042B0DD07B78052B0AD07B78062B1C
:100CB80007D07B78072B04D0604840F25B2103F013
:100CC800D3FAFB78092B23D97B68DB68FB60FB78B8
:100CD800A3F10A0213465B001344072202FA03F346
:100CE800BB60BB68DB43FA681340FB607978FB782C
:100CF800A3F10A0213465B00134401FA03F3BB6035
:100D0800FA68BB681343FB607B68FA68DA601EE028
:100D18007B681B69FB60FA7813465B001344072263
:100D280002FA03F3BB60BB68DB43FA681340FB605D
:100D38007978FA7813465B00134401FA03F3BB6031
:100D4800FA68BB681343FB607B68FA681A61BB7872
:100D5800062B21D87B685B6BFB60BB785A1E134659
:100D68009B0013441F2202FA03F3BB60BB68DB43FA
:100D7800FA681340FB60F978BB785A1E13469B004B
:100D8800134401FA03F3BB60FA68BB681343FB60C2
:100D98007B68FA685A6347E0BB780C2B21D87B68DC
:100DA8001B6BFB60BB78DA1F13469B0013441F22A2
:100DB80002FA03F3BB60BB68DB43FA681340FB60CD
:100DC800F978BB78DA1F13469B00134401FA03F342
:100DD800BB60FA68BB681343FB607B68FA681A63F8
:100DE80022E07B68DB6AFB60BB78A3F10D02134647
:100DF8009B0013441F2202FA03F3BB60BB68DB436A
:100E0800FA681340FB60F978BB78A3F10D0213462A
:100E18009B00134401FA03F3BB60FA68BB681343F1
:100E2800FB607B68FA68DA621037BD4680BD00BF98
:100E38000024014000280140003C0140D8BB0008C4
:100E480080B582B000AF78607B68664A93422FD045
:100E58007B68654A93422BD07B68644A934227D0CB
:100E68007B68634A934223D07B68624A93421FD0CF
:100E78007B68614A93421BD07B68604A934217D0D3
:100E88007B685F4A934213D07B685E4A93420FD0D7
:100E98007B685D4A93420BD07B685C4A934207D0DB
:100EA8007B685B4A934203D05A486F2103F0DCF910
:100EB8007B681A684FF6FE7313407A6813607B6884
:100EC80000221A607B6800225A607B6800229A60C0
:100ED8007B680022DA607B68424A934206D14E4A18
:100EE8004D4B5B6843F00F03536077E07B683E4AE5
:100EF800934206D1484A484B5B6843F0F00353607D
:100F08006CE07B68394A934206D1434A424B5B689E
:100F180043F47063536061E07B68354A934206D1BD
:100F28003D4A3D4B5B6843F47043536056E07B6831
:100F3800304A934206D1384A374B5B6843F47023F2
:100F480053604BE07B682C4A934206D1324A324BBD
:100F58005B6843F47003536040E07B68274A934220
:100F680006D12D4A2C4B5B6843F07063536035E023
:100F78007B68234A934206D1284A284B5B6843F092
:100F88000F0353602AE07B681E4A934206D1234A26
:100F9800224B5B6843F0F00353601FE07B681A4AFA
:100FA800934206D11D4A1D4B5B6843F4706353603E
:100FB80014E07B68154A934206D1184A174B5B68C0
:100FC80043F47043536009E07B68114A934205D1AA
:100FD800124A124B5B6843F4702353600837BD46CE
:100FE80080BD00BF080002401C00024030000240E3
:100FF80044000240580002406C0002408000024059
:10100800080402401C040240300402404404024028
:101018005804024008BC00080000024000040240D6
:1010280080B584B000AF786039600023FB607B68CE
:10103800764A93422FD07B68754A93422BD07B68BF
:10104800744A934227D07B68734A934223D07B68C3
:10105800724A93421FD07B68714A93421BD07B68C7
:10106800704A934217D07B686F4A934213D07B68CB
:101078006E4A93420FD07B686D4A93420BD07B68CF
:101088006C4A934207D07B686B4A934203D06B4803
:10109800CF2103F0E9F83B689B68102B07D03B6829
:1010A8009B68002B03D06548D02103F0DDF83B682E
:1010B800DB68002B04D03B68DB68B3F5803F03D3C3
:1010C8005E48D12103F0D0F83B681B69402B07D05C
:1010D8003B681B69002B03D05848D22103F0C4F8A1
:1010E8003B685B69802B07D03B685B69002B03D0AA
:1010F8005248D32103F0B8F83B689B69002B0DD008
:101108003B689B69B3F5807F08D03B689B69B3F562
:10111800007F03D04948D42103F0A6F83B68DB6977
:10112800002B0DD03B68DB69B3F5806F08D03B68B6
:10113800DB69B3F5006F03D04048D52103F094F87C
:101148003B681B6A202B07D03B681B6A002B03D027
:101158003A48D62103F088F83B685B6AB3F5405FEC
:1011680011D03B685B6AB3F5005F0CD03B685B6AE3
:10117800B3F5805F07D03B685B6A002B03D02F482C
:10118800D72103F071F83B689B6AB3F5804F07D00D
:101198003B689B6A002B03D02848D82103F064F8E9
:1011A8007B681B68FB60FB6823F4FF4323F0700334
:1011B800FB603B689A683B681B6A1A433B681B697B
:1011C8001A433B685B691A433B689B691A433B684F
:1011D800DB691A433B685B6A1A433B689B6A1343A3
:1011E800FA681343FB607B68FA681A603B68DA6840
:1011F8007B685A603B681A687B689A603B685A68E3
:101208007B68DA601037BD4680BD00BF0800024029
:101218001C000240300002404400024058000240D6
:101228006C00024080000240080402401C04024096
:1012380030040240440402405804024008BC00083C
:1012480080B582B000AF78600B46FB707B68294A96
:10125800934230D07B68284A93422CD07B68274A37
:10126800934228D07B68264A934224D07B68254A3B
:10127800934220D07B68244A93421CD07B68234A3F
:10128800934218D07B68224A934214D07B68214A43
:10129800934210D07B68204A93420CD07B681F4A47
:1012A800934208D07B681E4A934204D01D4840F2FE
:1012B800291102F0D9FFFB78002B07D0FB78012B0E
:1012C80004D018484FF4957102F0CEFFFB78002B3C
:1012D80006D07B681B6843F001027B681A6006E051
:1012E8007B681A684FF6FE7313407A6813600837F4
:1012F800BD4680BD080002401C000240300002408C
:1013080044000240580002406C0002408000024045
:10131800080402401C040240300402404404024015
:101328005804024008BC000880B582B000AF78605D
:101338000B467B807B681D4A934230D07B681C4AF1
:1013480093422CD07B681B4A934228D07B681A4A68
:10135800934224D07B68194A934220D07B68184A6C
:1013680093421CD07B68174A934218D07B68164A70
:10137800934214D07B68154A934210D07B68144A74
:1013880093420CD07B68134A934208D07B68124A78
:10139800934204D011484FF4B27102F065FF7A8885
:1013A8007B685A600837BD4680BD00BF0800024010
:1013B8001C00024030000240440002405800024035
:1013C8006C00024080000240080402401C040240F5
:1013D80030040240440402405804024008BC00089B
:1013E80080B584B000AF78600023FB607B68002B79
:1013F8000AD07B68012B07D07B68022B04D00B48EE
:1014080040F2031102F030FF094B1B68FB60FB68D8
:1014180003F03803FB60FA687B681343FB60044AF7
:10142800FB6813601037BD4680BD00BF38BC00089C
:101438000020024080B582B000AF78607B68102B36
:1014480007D07B68002B04D0094840F22F1102F026
:101458000BFF084A074B1B6823F01003136005496C
:10146800044B1A687B6813430B600837BD4680BD80
:1014780038BC00080020024080B588B000AF786012
:1014880039600023FB6100233B610023BB6100231B
:10149800FB6000237B610023BB607B68834A934227
:1014A8001BD07B68824A934217D07B68814A93425B
:1014B80013D07B68804A93420FD07B687F4A93425F
:1014C8000BD07B687E4A934207D07B687D4A934263
:1014D80003D07D48B22102F0C7FE3B68DB78002BC1
:1014E8001FD03B68DB78042B1BD03B68DB78282BAC
:1014F80017D03B68DB78482B13D03B68DB78142B7C
:101508000FD03B68DB78102B0BD03B68DB781C2BAB
:1015180007D03B68DB78182B03D06B48B32102F067
:10152800A3FE3B681B88002B03D16748B42102F057
:101538009BFE3B68DB7803F00F03FB613B68DB78BD
:1015480003F01003002B15D03B689B78012B0BD0C0
:101558003B689B78022B07D03B689B78032B03D012
:101568005948BB2102F080FE3B689B781A46FB690C
:101578001343FB613B681B88DBB2002B44D07B68BC
:101588001B687B610023BB6138E0BB69012202FA5A
:1015980003F3FB603B681B881A46FB6813403B61FA
:1015A8003A69FB689A4226D1BB699B00FB60FB68DD
:1015B8000F2202FA03F3BB60BB68DB437A6913406E
:1015C8007B61FB68FA6902FA03F37A6913437B616A
:1015D8003B68DB78282B05D1BB6901229A407B68E0
:1015E8005A6108E03B68DB78482B04D1BB690122CB
:1015F8009A407B681A61BB690133BB61BB69072BE1
:10160800C3D97B687A691A603B681B88FF2B4AD963
:101618007B685B687B610023BB613EE0BB69083384
:101628001A4601239340FB603B681B881A46FB68F7
:1016380013403B613A69FB689A422BD1BB699B0016
:10164800FB60FB680F2202FA03F3BB60BB68DB4355
:101658007A6913407B61FB68FA6902FA03F37A69D5
:1016680013437B613B68DB78282B07D1BB690833C0
:101678001A46012303FA02F27B685A613B68DB7859
:10168800482B07D1BB6908331A46012303FA02F233
:101698007B681A61BB690133BB61BB69072BBDD984
:1016A8007B687A695A602037BD4680BD00080140D2
:1016B800000C0140001001400014014000180140D6
:1016C800001C0140002001406CBC000880B400AF41
:1016D800134A134B1B6843F0010313601049104B66
:1016E8005A68104B13404B600D4A0D4B1B6823F092
:1016F800847323F480331360094A094B1B6823F46D
:1017080080231360064A064B5B6823F4FE0353608C
:10171800034B4FF41F029A60BD465DF8047B704787
:10172800001002400000FFF880B582B000AF78607A
:101738007B68002B0CD07B68B3F5803F08D07B68B2
:10174800B3F5802F04D0154840F2111102F08CFD3A
:10175800134A134B1B6823F480331360104A104B51
:101768001B6823F4802313607B68B3F5803F03D0A4
:10177800B3F5802F07D00DE0094A094B1B6843F4E5
:101788008033136006E0064A054B1B6843F4A02328
:10179800136000BF0837BD4680BD00BFA0BC00086D
:1017A8000010024080B582B000AF00233B600023E8
:1017B800FB710023BB71312000F044FB0346BB7171
:1017C8003B6801333B603B68B3F5A06F02D0BB793F
:1017D800002BF0D0312000F035FB0346002B02D05F
:1017E8000123FB7101E00023FB71FB7918460837E0
:1017F800BD4680BD80B584B000AF786039600023F5
:10180800FB607B68002B0CD07B68B3F5803F08D069
:101818007B68B3F5403F04D02B4840F27F1102F0BB
:1018280023FD3B68002B3CD03B68B3F5802F38D0B4
:101838003B68B3F5002F34D03B68B3F5402F30D068
:101848003B68B3F5801F2CD03B68B3F5A01F28D0A8
:101858003B68B3F5C01F24D03B68B3F5E01F20D028
:101868003B68B3F5001F1CD03B68B3F5101F18D0B8
:101878003B68B3F5201F14D03B68B3F5301F10D078
:101888003B68B3F5401F0CD03B68B3F5501F08D038
:101898003B68B3F5601F04D00B484FF4C07102F0E9
:1018A800E3FC0A4B5B68FB60FB6823F47C13FB607A
:1018B8007A683B681343FA681343FB60034AFB6882
:1018C80053601037BD4680BDA0BC00080010024020
:1018D80080B582B000AF0346FB71FB79002B07D0BF
:1018E800FB79012B04D005484FF4CA7102F0BCFC07
:1018F800034AFB7913600837BD4680BDA0BC0008C9
:101908006000424280B584B000AF78600023FB607D
:101918007B68002B0AD07B68012B07D07B68022BE1
:1019280004D00B484FF40E7102F09EFC094B5B6823
:10193800FB60FB6823F00303FB60FA687B681343D2
:10194800FB60044AFB6853601037BD4680BD00BF8A
:10195800A0BC00080010024080B400AF054B5B68D3
:10196800DBB203F00C03DBB21846BD465DF8047B1E
:10197800704700BF0010024080B584B000AF7860A7
:101988000023FB607B68002B1CD07B68802B19D060
:101998007B68902B16D07B68A02B13D07B68B02B6C
:1019A80010D07B68C02B0DD07B68D02B0AD07B6809
:1019B800E02B07D07B68F02B04D00B484FF419714B
:1019C80002F052FC094B5B68FB60FB6823F0F003F4
:1019D800FB60FA687B681343FB60044AFB6853604A
:1019E8001037BD4680BD00BFA0BC000800100240F3
:1019F80080B584B000AF78600023FB607B68002B63
:101A080014D07B68B3F5806F10D07B68B3F5A06FF6
:101A18000CD07B68B3F5C06F08D07B68B3F5E06F76
:101A280004D00B4840F27E2102F01EFC094B5B6893
:101A3800FB60FB6823F4E063FB60FA687B68134390
:101A4800FB60044AFB6853601037BD4680BD00BF89
:101A5800A0BC00080010024080B584B000AF7860D8
:101A68000023FB607B68002B14D07B68B3F5806F84
:101A780010D07B68B3F5A06F0CD07B68B3F5C06F4E
:101A880008D07B68B3F5E06F04D00B484FF426719B
:101A980002F0EAFB094B5B68FB60FB6823F46053C8
:101AA800FB607B68DB00FA681343FB60034AFB6852
:101AB80053601037BD4680BDA0BC0008001002402E
:101AC80080B584B000AF78600023FB607B68002B92
:101AD80010D07B68B3F5804F0CD07B68B3F5004F0E
:101AE80008D07B68B3F5404F04D00B4840F2023170
:101AF80002F0BAFB094B5B68FB60FB6823F44043C8
:101B0800FB60FA687B681343FB60044AFB68536018
:101B18001037BD4680BD00BFA0BC000800100240C1
:101B280080B487B000AF786000237B6100233B61FD
:101B38000023FB600023BB604D4B5B6803F00C0384
:101B48007B617B69042B07D0082B09D0002B34D18B
:101B58007B68484A1A6034E07B68464A1A6030E07D
:101B6800434B5B6803F470133B61414B5B6803F4C0
:101B78008033FB603B699B0C02333B61FB68002BA5
:101B880006D13B693C4A02FB03F27B681A6013E00A
:101B9800374B5B6803F40033002B06D03B69364AA9
:101BA80002FB03F27B681A6006E03B69314A02FBDC
:101BB80003F27B681A6004E003E07B682D4A1A6030
:101BC80000BF2B4B5B6803F0F0037B617B691B094B
:101BD8007B612A4A7B6913441B78DBB2BB607B6854
:101BE8001A68BB68DA407B685A60214B5B6803F46B
:101BF800E0637B617B691B0A7B61204A7B69134434
:101C08001B78DBB2BB607B685A68BB68DA407B68CC
:101C18009A60174B5B6803F460537B617B69DB0A4E
:101C28007B61164A7B6913441B78DBB2BB607B6817
:101C38005A68BB68DA407B68DA600D4B5B6803F46E
:101C480040437B617B699B0B7B610D4A7B69134435
:101C58001B78DBB2BB607B68DA68BB68B2FBF3F267
:101C68007B681A611C37BD465DF8047B704700BF6E
:101C78000010024000127A0000093D000400002014
:101C88001400002080B582B000AF78600B46FB706E
:101C98007B6823F4AA6323F00703002B02D17B6837
:101CA800002B04D1114840F22B4102F0DDFAFB78F9
:101CB800002B07D0FB78012B04D00C4840F22C41B4
:101CC80002F0D2FAFB78002B06D00949084B5A6972
:101CD8007B6813434B6106E00549054B5A697B68ED
:101CE800DB4313404B610837BD4680BDA0BC0008EC
:101CF8000010024080B582B000AF78600B46FB70E0
:101D08007A68154B1340002B02D17B68002B04D155
:101D1800124840F24A4102F0A7FAFB78002B07D09C
:101D2800FB78012B04D00D4840F24B4102F09CFA9D
:101D3800FB78002B06D00A49094B9A697B68134344
:101D48008B6106E00649064B9A697B68DB431340C2
:101D58008B610837BD4680BD0200C0FFA0BC0008EB
:101D68000010024080B582B000AF78600B46FB706F
:101D78007A68154B1340002B02D17B68002B04D1E5
:101D8800124840F2694102F06FFAFB78002B07D045
:101D9800FB78012B04D00D4840F26A4102F064FA46
:101DA800FB78002B06D00A49094BDA697B68134394
:101DB800CB6106E00649064BDA697B68DB431340D2
:101DC800CB610837BD4680BD00360181A0BC000844
:101DD8000010024080B582B000AF78600B46FB70FF
:101DE8007A68154B1340002B02D17B68002B04D175
:101DF800124840F2A44102F037FAFB78002B07D0D2
:101E0800FB78012B04D00D4840F2A54102F02CFAD2
:101E1800FB78002B06D00A49094BDA687B68134324
:101E2800CB6006E00649064BDA687B68DB43134063
:101E3800CB600837BD4680BD0200C0FFA0BC0008CB
:101E48000010024080B586B000AF0346FB71002346
:101E5800FB6000237B610023FB74FB79212B22D0DC
:101E6800FB79312B1FD0FB79392B1CD0FB79412B07
:101E780019D0FB79612B16D0FB797A2B13D0FB791B
:101E88007B2B10D0FB797C2B0DD0FB797D2B0AD0D6
:101E9800FB797E2B07D0FB797F2B04D0174840F2C3
:101EA800345102F0E1F9FB795B09DBB2FB60FB68B6
:101EB800012B03D1124B1B687B6109E0FB68022BE5
:101EC80003D10F4B1B6A7B6102E00D4B5B6A7B61A0
:101ED800FB7903F01F03FB60FB687A6922FA03F3BE
:101EE80003F00103002B02D00123FB7401E000235F
:101EF800FB74FB7C18461837BD4680BDA0BC0008A3
:101F08000010024080B400AF044A044B5B6A43F0FF
:101F180080735362BD465DF8047B70470010024031
:101F280080B584B000AF786039600023FB817B689E
:101F38006B4A93420BD07B686A4A934207D07B680E
:101F4800694A934203D06948A32102F08DF93B689E
:101F58001B88002B12D03B681B88B3F5806F0DD00F
:101F68003B681B88B3F5004F08D03B681B88B3F566
:101F7800404F03D05D48A62102F076F93B685B88A4
:101F8800B3F5827F07D03B685B88002B03D05748A6
:101F9800A72102F069F93B689B88B3F5006F07D069
:101FA8003B689B88002B03D05048A82102F05CF9BD
:101FB8003B68DB88002B07D03B68DB88022B03D00B
:101FC8004A48A92102F050F93B681B89002B07D029
:101FD8003B681B89012B03D04448AA2102F044F92D
:101FE8003B685B89B3F5007F07D03B685B89002BB2
:101FF80003D03E48AB2102F037F93B689B89002BA0
:102008001FD03B689B89082B1BD03B689B89102BF2
:1020180017D03B689B89182B13D03B689B89202BD2
:102028000FD03B689B89282B0BD03B689B89302BB2
:1020380007D03B689B89382B03D02C48AC2102F091
:1020480013F93B68DB89002B07D03B68DB89802BC1
:1020580003D02648AD2102F007F93B681B8A002B04
:1020680003D12248AE2102F0FFF87B681B88FB8170
:10207800FB8903F44153FB813B681A883B685B8802
:1020880013439AB23B689B8813439AB23B68DB8838
:1020980013439AB23B681B8913439AB23B685B8926
:1020A80013439AB23B689B8913439AB23B68DB8916
:1020B80013439AB2FB891343FB817B68FA891A8020
:1020C8007B689B8B9BB223F400639AB27B689A83EC
:1020D8003B681A8A7B681A821037BD4680BD00BFEC
:1020E8000030014000380040003C0040D0BC0008EF
:1020F80080B582B000AF78600B46FB707B68194AE8
:1021080093420CD07B68184A934208D07B68174AE0
:10211800934204D0164840F2B71102F0A5F8FB78B4
:10212800002B07D0FB78012B04D011484FF4DC7149
:1021380002F09AF8FB78002B08D07B681B889BB2CA
:1021480043F040039AB27B681A8007E07B681B88DB
:102158009BB223F040039AB27B681A800837BD46C9
:1021680080BD00BF0030014000380040003C004006
:10217800D0BC000880B582B000AF78600B467B8089
:102188007B680B4A93420CD07B680A4A934208D07A
:102198007B68094A934204D0084840F23A2102F089
:1021A80063F87B687A889A810837BD4680BD00BF8E
:1021B8000030014000380040003C0040D0BC00081E
:1021C80080B582B000AF78607B680B4A93420CD030
:1021D8007B680A4A934208D07B68094A934204D034
:1021E800084840F24A2102F03FF87B689B899BB27D
:1021F80018460837BD4680BD003001400038004011
:10220800003C0040D0BC000880B584B000AF7860C6
:102218000B467B800023FB737B681F4A93420CD0DC
:102228007B681E4A934208D07B681D4A934204D0BB
:102238001C4840F2163102F017F87B88802B19D021
:102248007B88402B16D07B88202B13D07B88102BC3
:1022580010D07B88082B0DD07B88042B0AD07B8874
:10226800022B07D07B88012B04D00E4840F217318F
:1022780001F0FAFF7B681B899AB27B8813409BB2F6
:10228800002B02D00123FB7301E00023FB73FB7BCF
:1022980018461037BD4680BD003001400038004068
:1022A800003C0040D0BC000880B584B000AF786026
:1022B80039600023FB817B68674A934243D07B687F
:1022C800B3F1804F3FD07B68644A93423BD07B6830
:1022D800634A934237D07B68624A934233D07B6823
:1022E800614A93422FD07B68604A93422BD07B6827
:1022F8005F4A934227D07B685E4A934223D07B682B
:102308005D4A93421FD07B685C4A93421BD07B682E
:102318005B4A934217D07B685A4A934213D07B6832
:10232800594A93420FD07B68584A93420BD07B6836
:10233800574A934207D07B68564A934203D056487F
:10234800E72101F091FF3B685B88002B13D03B68C5
:102358005B88102B0FD03B685B88202B0BD03B6829
:102368005B88402B07D03B685B88602B03D04A48CA
:10237800E82101F079FF3B68DB88002B0DD03B6832
:10238800DB88B3F5807F08D03B68DB88B3F5007F36
:1023980003D04148E92101F067FF7B681B88FB8176
:1023A8007B682D4A934213D07B68314A93420FD001
:1023B8007B68B3F1804F0BD07B68284A934207D0E3
:1023C8007B68274A934203D07B68264A934208D108
:1023D800FB8923F07003FB813B685A88FB89134310
:1023E800FB817B68204A93420CD07B681F4A93424A
:1023F80008D0FB8923F44073FB813B68DA88FB89AA
:102408001343FB817B68FA891A803B689A887B684A
:102418009A853B681A887B681A857B680E4A9342BE
:102428000FD07B68124A93420BD07B68174A9342BD
:1024380007D07B68164A934203D07B68154A9342BB
:1024480004D13B681B7A9AB27B681A867B680122A2
:102458009A821037BD4680BD002C01400004004020
:1024680000080040000C004000100040001400402C
:1024780000340140004C014000500140005401402C
:1024880000180040001C00400020004000400140AF
:10249800004401400048014000BD000880B584B0F8
:1024A80000AF7860396000237B810023FB81002323
:1024B800BB817B68854A934224D07B68B3F1804F07
:1024C80020D07B68824A93421CD07B68814A934221
:1024D80018D07B68804A934214D07B687F4A934225
:1024E80010D07B687E4A93420CD07B687D4A934229
:1024F80008D07B687C4A934204D07C4840F26F1134
:1025080001F0B2FE3B681B88002B18D03B681B8883
:10251800102B14D03B681B88202B10D03B681B88DD
:10252800302B0CD03B681B88602B08D03B681B887D
:10253800702B04D06D484FF4B87101F095FE3B68DC
:102548005B88002B08D03B685B88012B04D0674868
:1025580040F2711101F088FE3B681B89002B08D0FE
:102568003B681B89022B04D060484FF4B97101F015
:102578007BFE7B681B8C9BB223F010039AB27B68AE
:102588001A847B681B8CFB817B689B88BB817B687A
:102598001B8B7B817B8923F4E0437B817B8923F43C
:1025A80040737B813B681B881B029AB27B8913436B
:1025B8007B81FB8923F02003FB813B681B891B017E
:1025C8009AB2FB891343FB813B685B881B019AB273
:1025D800FB891343FB817B683C4A934203D07B68A9
:1025E8003E4A934261D13B689B88002B08D03B68E8
:1025F8009B88042B04D03D4840F28F1101F034FE33
:102608003B685B89002B08D03B685B89082B04D0AA
:1026180036484FF4C87101F027FE3B68DB89B3F5F3
:10262800007F08D03B68DB89002B04D02F4840F29C
:10263800911101F019FE3B689B89B3F5807F08D0A2
:102648003B689B89002B04D028484FF4C97101F0DE
:102658000BFEFB8923F08003FB813B685B891B0130
:102668009AB2FB891343FB81FB8923F04003FB816A
:102678003B689B881B019AB2FB891343FB81BB898A
:1026880023F48063BB81BB8923F40063BB813B686F
:102698009B899B009AB2BB891343BB813B68DB894A
:1026A8009B009AB2BB891343BB817B68BA899A8025
:1026B8007B687A891A833B68DA887B681A877B6823
:1026C800FA891A841037BD4680BD00BF002C01402E
:1026D8000004004000080040000C004000340140A5
:1026E800004C0140001800400040014000BD0008B7
:1026F80080B584B000AF786039600023BB810023C7
:102708007B810023FB817B685B4A934218D07B68FE
:10271800B3F1804F14D07B68584A934210D07B683D
:10272800574A93420CD07B68564A934208D07B683C
:10273800554A934204D055484FF4047101F094FD72
:102748003B681B88002B18D03B681B88102B14D0C3
:102758003B681B88202B10D03B681B88302B0CD083
:102768003B681B88602B08D03B681B88702B04D003
:10277800464840F2112101F077FD3B685B88002B49
:1027880008D03B685B88012B04D0404840F21221F6
:1027980001F06AFD3B681B89002B08D03B681B8948
:1027A800022B04D0394840F2132101F05DFD7B680B
:1027B8001B8C9BB223F480539AB27B681A847B6883
:1027C8001B8C7B817B689B88FB817B689B8BBB8197
:1027D800BB8923F4E043BB81BB8923F44073BB81ED
:1027E8003B681B881B029AB2BB891343BB817B8958
:1027F80023F400537B813B681B891B039AB27B89B6
:1028080013437B813B685B881B039AB27B89134324
:102818007B817B68184A934203D07B681A4A9342AB
:1028280018D13B689B89B3F5807F08D03B689B89AA
:10283800002B04D015484FF40C7101F015FDFB89ED
:1028480023F48043FB813B689B899B019AB2FB89F7
:102858001343FB817B68FA899A807B68BA899A83DB
:102868003B68DA887B68A3F840207B687A891A84F9
:102878001037BD4680BD00BF002C01400004004059
:1028880000080040000C00400034014000BD000872
:1028980080B582B000AF786039603B681B88002B38
:1028A80010D03B681B88042B0CD03B681B88082B76
:1028B80008D03B681B880C2B04D0974840F24E2167
:1028C80001F0D2FC3B689B88012B0CD03B689B88AD
:1028D800022B08D03B689B88032B04D08E4840F21B
:1028E8004F2101F0C1FC3B68DB88002B10D03B680E
:1028F800DB88042B0CD03B68DB88082B08D03B68AE
:10290800DB880C2B04D084484FF4147101F0ACFC24
:102918003B681B890F2B04D97F4840F2512101F0F5
:10292800A3FC7B687D4A934213D07B687C4A934220
:102938000FD07B68B3F1804F0BD07B68794A934204
:1029480007D07B68784A934203D07B68774A9342E2
:102958000DD13B685B88002B08D03B685B88022B55
:1029680004D06D4840F2562101F07EFC10E03B682F
:102978005B88002B0CD03B685B88022B08D03B6837
:102988005B880A2B04D0644840F25A2101F06CFCA1
:102998003B681B88002B50D17B68604A93423CD02F
:1029A8007B68B3F1804F38D07B685E4A934234D05D
:1029B8007B685D4A934230D07B685C4A93422CD056
:1029C8007B68574A934228D07B68594A934224D05F
:1029D8007B68584A934220D07B68574A93421CD060
:1029E8007B68564A934218D07B68554A934214D064
:1029F8007B68544A934210D07B68534A93420CD068
:102A08007B68524A934208D07B68514A934204D06B
:102A1800414840F25E2101F027FC3B6859883B6839
:102A28009A883B681B89786800F090FF3B68DB88D0
:102A38007868194600F068FDB8E03B681B88042BED
:102A480038D17B68354A934224D07B68B3F1804FF4
:102A580020D07B68334A93421CD07B68324A934229
:102A680018D07B68314A934214D07B682C4A934231
:102A780010D07B682E4A93420CD07B682F4A934231
:102A880008D07B68304A934204D023484FF41A7127
:102A980001F0EAFB3B6859883B689A883B681B89C8
:102AA800786800F0C3FF3B68DB887868194600F057
:102AB800B5FD7BE03B681B88082B4BD17B68174A28
:102AC800934218D07B68B3F1804F14D07B68154AC5
:102AD800934210D07B68144A93420CD07B68134A07
:102AE800934208D07B680E4A934204D00A4840F2C9
:102AF800722101F0B9FB3B6859883B689A883B68AA
:102B08001B89786801F00CF83B68DB8878681946FF
:102B180000F0ECFD4AE000BF00BD0008002C0140B9
:102B2800003401400004004000080040000C004050
:102B3800004C014000500140005401400018004082
:102B4800001C0040002000400040014000440140BB
:102B5800004801407B68174A934218D07B68B3F15C
:102B6800804F14D07B68144A934210D07B68134A74
:102B780093420CD07B68124A934208D07B68114A72
:102B8800934204D010484FF41F7101F06DFB3B686D
:102B980059883B689A883B681B89786801F036F841
:102BA8003B68DB887868194600F0F4FD0837BD46B5
:102BB80080BD00BF002C0140000400400008004018
:102BC800000C00400034014000BD000880B582B010
:102BD80000AF78600B46FB707B68354A934244D05F
:102BE8007B68B3F1804F40D07B68324A93423CD037
:102BF8007B68314A934238D07B68304A934234D05C
:102C08007B682F4A934230D07B682E4A93422CD05F
:102C18007B682D4A934228D07B682C4A934224D063
:102C28007B682B4A934220D07B682A4A93421CD067
:102C38007B68294A934218D07B68284A934214D06B
:102C48007B68274A934210D07B68264A93420CD06F
:102C58007B68254A934208D07B68244A934204D073
:102C6800234840F2293101F0FFFAFB78002B07D006
:102C7800FB78012B04D01E4840F22A3101F0F4FA07
:102C8800FB78002B08D07B681B889BB243F00103BC
:102C98009AB27B681A8007E07B681B889BB223F096
:102CA80001039AB27B681A800837BD4680BD00BF11
:102CB800002C01400004004000080040000C0040C7
:102CC800001000400014004000340140004C014056
:102CD800005001400054014000180040001C004012
:102CE80000200040004001400044014000480140ED
:102CF80000BD000880B582B000AF78600B467B80CD
:102D080013467B707B683C4A934244D07B68B3F19E
:102D1800804F40D07B68394A93423CD07B68384A20
:102D2800934238D07B68374A934234D07B68364A1E
:102D3800934230D07B68354A93422CD07B68344A22
:102D4800934228D07B68334A934224D07B68324A26
:102D5800934220D07B68314A93421CD07B68304A2A
:102D6800934218D07B682F4A934214D07B682E4A2E
:102D7800934210D07B682D4A93420CD07B682C4A32
:102D8800934208D07B682B4A934204D02A4840F2E9
:102D98006B3101F069FA7B8803F47F43002B02D181
:102DA8007B88002B04D124484FF45B7101F05CFA56
:102DB8007B78002B07D07B78012B04D01E4840F28B
:102DC8006D3101F051FA7B78002B08D07B689B8924
:102DD8009AB27B8813439AB27B689A8109E07B6830
:102DE8009B899AB27B88DB439BB213409AB27B687B
:102DF8009A810837BD4680BD002C01400004004080
:102E080000080040000C0040001000400014004082
:102E180000340140004C0140005001400054014082
:102E280000180040001C0040002000400040014005
:102E3800004401400048014000BD000880B582B050
:102E480000AF78600B467B8013463B807B682E4A38
:102E5800934244D07B68B3F1804F40D07B682B4AC3
:102E680093423CD07B682A4A934238D07B68294AEF
:102E7800934234D07B68284A934230D07B68274AF3
:102E880093422CD07B68264A934228D07B68254AF7
:102E9800934224D07B68244A934220D07B68234AFB
:102EA80093421CD07B68224A934218D07B68214AFF
:102EB800934214D07B68204A934210D07B681F4A03
:102EC80093420CD07B681E4A934208D07B681D4A07
:102ED800934204D01C4840F29B4101F0C5F93B885D
:102EE800002B07D03B88012B04D0174840F29C41A7
:102EF80001F0BAF97B687A881A857B683A889A82E1
:102F08000837BD4680BD00BF002C014000040040CA
:102F180000080040000C0040001000400014004071
:102F280000340140004C0140005001400054014071
:102F380000180040001C00400020004000400140F4
:102F4800004401400048014000BD000880B582B03F
:102F580000AF78600B46FB707B68354A934244D0DB
:102F68007B68B3F1804F40D07B68324A93423CD0B3
:102F78007B68314A934238D07B68304A934234D0D8
:102F88007B682F4A934230D07B682E4A93422CD0DC
:102F98007B682D4A934228D07B682C4A934224D0E0
:102FA8007B682B4A934220D07B682A4A93421CD0E4
:102FB8007B68294A934218D07B68284A934214D0E8
:102FC8007B68274A934210D07B68264A93420CD0EC
:102FD8007B68254A934208D07B68244A934204D0F0
:102FE800234840F2845101F03FF9FB78002B07D0C9
:102FF800FB78012B04D01E4840F2855101F034F9CA
:10300800FB78002B08D07B681B889BB243F08003B9
:103018009AB27B681A8007E07B681B889BB223F012
:1030280080039AB27B681A800837BD4680BD00BF0E
:10303800002C01400004004000080040000C004043
:10304800001000400014004000340140004C0140D2
:10305800005001400054014000180040001C00408E
:103068000020004000400140004401400048014069
:1030780000BD000880B584B000AF78600B467B8047
:103088000023FB817B68234A934224D07B68B3F1F9
:10309800804F20D07B68204A93421CD07B681F4A0F
:1030A800934218D07B681E4A934214D07B681D4A0D
:1030B800934210D07B681C4A93420CD07B681B4A11
:1030C800934208D07B681A4A934204D0194840F2C8
:1030D800026101F0C9F87B88082B07D07B88002B98
:1030E80004D0144840F2036101F0BEF87B681B8BE2
:1030F800FB81FB8923F40063FB817B881B029AB266
:10310800FB891343FB817B68FA891A831037BD4614
:1031180080BD00BF002C01400004004000080040B2
:10312800000C004000340140004C014000180040F1
:103138000040014000BD000880B584B000AF786051
:103148000B467B800023FB817B681D4A934218D085
:103158007B68B3F1804F14D07B681A4A934210D031
:103168007B68194A93420CD07B68184A934208D06E
:103178007B68174A934204D0164840F2326101F046
:1031880073F87B88082B07D07B88002B04D0114864
:1031980040F2336101F068F87B689B8BFB81FB8907
:1031A80023F40063FB817B881B029AB2FB891343DB
:1031B800FB817B68FA899A831037BD4680BD00BFC2
:1031C800002C01400004004000080040000C0040B2
:1031D8000034014000BD000880B582B000AF7860BF
:1031E8000B467B807B68274A934244D07B68B3F1C7
:1031F800804F40D07B68244A93423CD07B68234A66
:10320800934238D07B68224A934234D07B68214A63
:10321800934230D07B68204A93422CD07B681F4A67
:10322800934228D07B681E4A934224D07B681D4A6B
:10323800934220D07B681C4A93421CD07B681B4A6F
:10324800934218D07B681A4A934214D07B68194A73
:10325800934210D07B68184A93420CD07B68174A77
:10326800934208D07B68164A934204D0154840F62A
:10327800F40100F0F9FF7B687A889A850837BD4623
:1032880080BD00BF002C0140000400400008004041
:10329800000C0040001000400014004000340140C1
:1032A800004C01400050014000540140001800400B
:1032B800001C004000200040004001400044014044
:1032C8000048014000BD000880B582B000AF7860BA
:1032D8000B467B807B68234A93423CD07B68B3F1E2
:1032E800804F38D07B68204A934234D07B681F4A8D
:1032F800934230D07B681E4A93422CD07B681D4A8B
:10330800934228D07B681C4A934224D07B681B4A8E
:10331800934220D07B681A4A93421CD07B68194A92
:10332800934218D07B68184A934214D07B68174A96
:10333800934210D07B68164A93420CD07B68154A9A
:10334800934208D07B68144A934204D0134840F64D
:10335800021100F089FF7B687A889A860837BD4693
:1033680080BD00BF002C0140000400400008004060
:10337800000C004000340140004C01400050014066
:103388000054014000180040001C0040002000408C
:1033980000400140004401400048014000BD0008D1
:1033A80080B582B000AF78600B467B807B68174A97
:1033B800934224D07B68B3F1804F20D07B68144AB5
:1033C80093421CD07B68134A934218D07B68124AF8
:1033D800934214D07B68114A934210D07B68104AFC
:1033E80093420CD07B680F4A934208D07B680E4A00
:1033F800934204D00D484FF4116100F035FF7B680B
:103408007A881A870837BD4680BD00BF002C014066
:103418000004004000080040000C00400034014057
:10342800004C0140001800400040014000BD000869
:1034380080B582B000AF78600B467B807B68114A0C
:10344800934218D07B68B3F1804F14D07B680E4A42
:10345800934210D07B680D4A93420CD07B680C4A8B
:10346800934208D07B680B4A934204D00A4840F63E
:103478001E1100F0F9FE7B687A889A870837BD46E6
:1034880080BD00BF002C014000040040000800403F
:10349800000C00400034014000BD000880B582B037
:1034A80000AF78600B467B807B68114A934218D046
:1034B8007B68B3F1804F14D07B680E4A934210D0DA
:1034C8007B680D4A93420CD07B680C4A934208D023
:1034D8007B680B4A934204D00A4840F62C1100F04E
:1034E800C3FE7B687A88A3F840200837BD4680BDB4
:1034F800002C01400004004000080040000C00407F
:103508000034014000BD000880B582B000AF78608B
:103518000B467B807B68324A93423CD07B68B3F190
:10352800804F38D07B682F4A934234D07B682E4A2C
:10353800934230D07B682D4A93422CD07B682C4A2A
:10354800934228D07B682B4A934224D07B682A4A2E
:10355800934220D07B68294A93421CD07B68284A32
:10356800934218D07B68274A934214D07B68264A36
:10357800934210D07B68254A93420CD07B68244A3A
:10358800934208D07B68234A934204D0224840F6ED
:103598003F1100F069FE7B88002B0DD07B88042B3F
:1035A8000AD07B88082B07D07B880C2B04D01A48BC
:1035B8004FF4146100F058FE7B681B8B9BB223F01C
:1035C8000C039AB27B681A837B681B8B9AB27B8840
:1035D80013439AB27B681A830837BD4680BD00BF83
:1035E800002C01400004004000080040000C00408E
:1035F80000340140004C014000500140005401409B
:1036080000180040001C004000200040004001401D
:10361800004401400048014000BD000880B582B068
:1036280000AF78600B467B807B68274A934224D0A2
:103638007B68B3F1804F20D07B68244A93421CD02A
:103648007B68234A934218D07B68224A934214D05D
:103658007B68214A934210D07B68204A93420CD061
:103668007B681F4A934208D07B681E4A934204D065
:103678001D4840F6551100F0F7FD7B88002B0DD052
:103688007B88042B0AD07B88082B07D07B880C2BDF
:1036980004D0154840F6561100F0E6FD7B681B8BF8
:1036A8009BB223F440639AB27B681A837B681B8BB6
:1036B8009AB27B881B029BB213439AB27B681A8327
:1036C8000837BD4680BD00BF002C01400004004003
:1036D80000080040000C004000340140004C01404C
:1036E800001800400040014000BD000880B582B0CD
:1036F80000AF78600B467B807B68204A934218D0E5
:103708007B68B3F1804F14D07B681D4A934210D078
:103718007B681C4A93420CD07B681B4A934208D0B2
:103728007B681A4A934204D0194840F66B1100F09E
:103738009BFD7B88002B0DD07B88042B0AD07B88CF
:10374800082B07D07B880C2B04D0114840F66C114D
:1037580000F08AFD7B689B8B9BB223F00C039AB226
:103768007B689A837B689B8B9AB27B8813439AB257
:103778007B689A830837BD4680BD00BF002C014096
:103788000004004000080040000C004000340140E4
:1037980000BD000880B582B000AF78600B467B8022
:1037A8007B68214A934218D07B68B3F1804F14D0CC
:1037B8007B681E4A934210D07B681D4A93420CD006
:1037C8007B681C4A934208D07B681B4A934204D00A
:1037D8001A4840F6811100F047FD7B88002B0DD078
:1037E8007B88042B0AD07B88082B07D07B880C2B7E
:1037F80004D0124840F6821100F036FD7B689B8B9E
:103808009BB223F440639AB27B689A837B689B8B54
:103818009AB27B881B029BB213439AB27B689A8345
:103828000837BD4680BD00BF002C014000040040A1
:1038380000080040000C00400034014000BD0008B2
:1038480080B582B000AF78600B467B807B682E4ADB
:10385800934244D07B68B3F1804F40D07B682B4AB9
:1038680093423CD07B682A4A934238D07B68294AE5
:10387800934234D07B68284A934230D07B68274AE9
:1038880093422CD07B68264A934228D07B68254AED
:10389800934224D07B68244A934220D07B68234AF1
:1038A80093421CD07B68224A934218D07B68214AF5
:1038B800934214D07B68204A934210D07B681F4AF9
:1038C80093420CD07B681E4A934208D07B681D4AFD
:1038D800934204D01C4840F6822100F0C5FC7B8846
:1038E80003F47F43002B02D17B88002B04D11648B8
:1038F80040F6832100F0B8FC7B88DB439AB27B68F2
:103908001A820837BD4680BD002C014000040040E3
:1039180000080040000C0040001000400014004067
:1039280000340140004C0140005001400054014067
:1039380000180040001C00400020004000400140EA
:10394800004401400048014000BD000880B487B031
:1039580000AFF860084611461A4603467B810B46BD
:103968003B811346FB800023BB820023FB82FB685C
:103978001B8C9BB223F001039AB2FB681A84FB6884
:103988001B8BBB82FB681B8CFB82BB8A23F0F30377
:10399800BB82FB881B019AB23B8913439AB2BB8A4C
:1039A8001343BB82FB681C4A934213D0FB681B4A33
:1039B80093420FD0FB68B3F1804F0BD0FB68184AD5
:1039C800934207D0FB68174A934203D0FB68164A14
:1039D80093420BD1FB8A23F00203FB827A89FB8A8C
:1039E80013439BB243F00103FB820AE0FB8A23F0F6
:1039F8000A03FB827A89FB8A13439BB243F00103D3
:103A0800FB82FB68BA8A1A83FB68FA8A1A841C3715
:103A1800BD465DF8047B7047002C0140003401402E
:103A28000004004000080040000C004080B487B04B
:103A380000AFF860084611461A4603467B810B46DC
:103A48003B811346FB800023BB820023FB820023BB
:103A58007B82FB681B8C9BB223F010039AB2FB6835
:103A68001A84FB681B8BBB82FB681B8CFB827B89DF
:103A78001B017B82BB8A23F440731B051B0DBB8291
:103A8800FB881B039AB2BB8A1343BB823B891B0288
:103A98009AB2BB8A1343BB82FB681C4A934213D079
:103AA800FB681B4A93420FD0FB68B3F1804F0BD0E1
:103AB800FB68184A934207D0FB68174A934203D021
:103AC800FB68164A93420BD1FB8A23F02003FB8242
:103AD8007A8AFB8A13439BB243F01003FB820AE005
:103AE800FB8A23F0A003FB827A89FB8A13439BB2EB
:103AF80043F01003FB82FB68BA8A1A83FB68FA8AD0
:103B08001A841C37BD465DF8047B7047002C0140C1
:103B1800003401400004004000080040000C004050
:103B280080B487B000AFF860084611461A460346CD
:103B38007B810B463B811346FB800023BB8200231D
:103B4800FB8200237B82FB681B8C9BB223F480736F
:103B58009AB2FB681A84FB689B8BBB82FB681B8C40
:103B6800FB827B891B027B82BB8A23F0F303BB8227
:103B7800FB881B019AB23B8913439AB2BB8A134351
:103B8800BB82FB681C4A934213D0FB681B4A9342D2
:103B98000FD0FB68B3F1804F0BD0FB68184A9342F3
:103BA80007D0FB68174A934203D0FB68164A934232
:103BB8000BD1FB8A23F40073FB827A8AFB8A1343B6
:103BC8009BB243F48073FB820AE0FB8A23F42063F0
:103BD800FB827A89FB8A13439BB243F48073FB828E
:103BE800FB68BA8A9A83FB68FA8A1A841C37BD462E
:103BF8005DF8047B704700BF002C01400034014091
:103C08000004004000080040000C004080B487B069
:103C180000AFF860084611461A4603467B810B46FA
:103C28003B811346FB800023BB820023FB820023D9
:103C38007B82FB681B8C9BB223F480539AB2FB688F
:103C48001A84FB689B8BBB82FB681B8CFB827B897D
:103C58001B037B82BB8A23F440731B051B0DBB82AD
:103C68003B891B029AB2BB8A1343BB82FB881B03A6
:103C78009AB2BB8A1343BB82FB681D4A934213D096
:103C8800FB681C4A93420FD0FB68B3F1804F0BD0FE
:103C9800FB68194A934207D0FB68184A934203D03D
:103CA800FB68174A93420BD1FB8A23F40053FB822B
:103CB8007A8AFB8A13439BB243F48053FB820CE05D
:103CC800FB8A23F400735B045B0CFB827A89FB8A12
:103CD80013439BB243F48053FB82FB68BA8A9A83EE
:103CE800FB68FA8A1A841C37BD465DF8047B704766
:103CF800002C01400034014000040040000800404E
:103D0800000C004080B58CB000AF786039600023AB
:103D1800FB620023BB6200237B6200233B6200231B
:103D2800FB617B689D4A934213D07B689C4A93420F
:103D38000FD07B689B4A93420BD07B689A4A934288
:103D480007D07B68994A934203D09948B82100F07C
:103D58008BFA3B681B68002B04D03B681B68954AAC
:103D6800934203D99248B92100F07EFA3B689B88B8
:103D7800002B08D03B689B88B3F5805F03D08C4844
:103D8800BA2100F071FA3B68DB88002B12D03B683F
:103D9800DB88B3F5805F0DD03B68DB88B3F5005F47
:103DA80008D03B68DB88B3F5405F03D08048BB216F
:103DB80000F05AFA3B681B89002B0DD03B681B8921
:103DC800B3F5806F08D03B681B89B3F5C06F03D08B
:103DD8007748BC2100F048FA3B685B891A464FF6E1
:103DE800F3731340002B03D13B685B89002B03D18D
:103DF8006F48BD2100F038FA3B689B89002B12D030
:103E08003B689B89B3F5807F0DD03B689B89B3F5F0
:103E1800007F08D03B689B89B3F5407F03D0644896
:103E2800BE2100F021FA3B689B89002B0FD07B68EC
:103E38005A4A93420BD07B68594A934207D07B6811
:103E4800584A934203D05A48C22100F00DFA7B68C1
:103E5800FB617B681B8A9BB2FB62FA6A4CF6FF73B4
:103E68001340FB623B68DB881A46FB6A1343FB621C
:103E7800FB6A9AB27B681A827B689B899BB2FB6259
:103E8800FA6A4EF6F3131340FB623B689A883B6864
:103E98001B8913439AB23B685B8913439BB21A464A
:103EA800FB6A1343FB62FB6A9AB27B689A817B6860
:103EB8009B8A9BB2FB62FA6A4FF6FF431340FB6290
:103EC8003B689B891A46FB6A1343FB62FB6A9AB2FA
:103ED8007B689A8207F108031846FDF721FEFB6903
:103EE8002E4A934202D17B69BB6201E03B69BB6207
:103EF8007B689B899BB29BB21BB2002B0CDABA6A17
:103F080013469B0013449A001A443B681B685B00E5
:103F1800B2FBF3F37B620BE0BA6A13469B001344CF
:103F28009A001A443B681B689B00B2FBF3F37B6260
:103F38007B6A214AA2FB03235B091B01FB62FB6A24
:103F48001B09642202FB03F37A6AD31A3B627B687B
:103F58009B899BB29BB21BB2002B0CDA3B6ADB003D
:103F68003233154AA2FB03235B0903F00703FA6AFD
:103F78001343FB620BE03B6A1B0132330E4AA2FB80
:103F880003235B0903F00F03FA6A1343FB62FB6A1E
:103F98009AB27B681A813037BD4680BD003801402F
:103FA8000044004000480040004C004000500040E1
:103FB80030BD000820AA44001F85EB5180B582B0AF
:103FC80000AF78600B46FB707B681D4A934214D0A3
:103FD8007B681C4A934210D07B681B4A93420CD0E2
:103FE8007B681A4A934208D07B68194A934204D0E6
:103FF80018484FF4B17100F037F9FB78002B07D05F
:10400800FB78012B04D0134840F2631100F02CF91F
:10401800FB78002B08D07B689B899BB243F4005344
:104028009AB27B689A8107E07B689B899BB223F4EC
:1040380000539AB27B689A810837BD4680BD00BF9D
:10404800003801400044004000480040004C004057
:104058000050004030BD000880B582B000AF7860E5
:104068000B467B8013467B707B68254A934214D0AD
:104078007B68244A934210D07B68234A93420CD031
:104088007B68224A934208D07B68214A934204D035
:10409800204840F2C31100F0E7F87A884FF63F73E2
:1040A8001340002B02D17B88002B04D119484FF410
:1040B800E27100F0D9F87B78002B07D07B78012BD0
:1040C80004D0144840F2C51100F0CEF87B78002BDC
:1040D80008D07B689B8A9AB27B8813439AB27B6824
:1040E8009A8209E07B689B8A9AB27B88DB439BB201
:1040F80013409AB27B689A820837BD4680BD00BFDC
:10410800003801400044004000480040004C004096
:104118000050004030BD000880B584B000AF786022
:104128000023FB607B68002B0ED07B68802B0BD0B4
:104138007B68B3F5807F07D07B68B3F5C07F03D079
:1041480009487A2100F090F8084B5B6823F4C073A3
:10415800FB60FA687B681343FB60044AFB685360A2
:104168001037BD4680BD00BF64BD0008002C00406C
:1041780080B584B000AF0346FB710023FB60FB7978
:104188005BB2002B03DA0A488E2100F06DF8094B68
:104198005B6823F07F03FB60FB7903F07F02FB6819
:1041A8001343FB60034AFB6853601037BD4680BD6C
:1041B80064BD0008002C004080B483B000AF786074
:1041C800FEE700BF80B500AF024800F07DF801208F
:1041D800FFF7F2FF98BD000880B584B000AF7860A3
:1041E800144B1B68002B02D1124B134A1A60114B57
:1041F8001B68FB607B68033323F003037B600D4B74
:104208001A687B6813440D4A934207D907F094F85B
:1042180002460C2313604FF0FF3306E0054B1A6883
:104228007B681344034A1360FB6818461037BD4681
:1042380080BD00BF9C0A0020D013002000FC002095
:1042480080B483B000AF786039607B6801221A605F
:104258003B68044A1A6000BF0C37BD465DF8047B12
:10426800704700BF1800002080B582B000AF7860AA
:104278003960034879683A6800F004F8FFF7A2FF4C
:10428800F0BD00080FB480B582B000AF07F1140389
:104298003B600C4880213A693B6807F08FF87860EA
:1042A8007B68002B05DD7B680648194600F024F87A
:1042B80078607B6818460837BD46BDE8804004B082
:1042C800704700BFA40A002080B582B000AF7860B4
:1042D800786807F042F803467868194600F00CF849
:1042E8000448012100F008F8034618460837BD467F
:1042F80080BD00BF1CBE000880B582B000AF7860EA
:1043080039607868396800F005F8034618460837B8
:10431800BD4680BDB0B590B000AF786039607A68AE
:104328003B6813441B78002B0BD104233B637B6849
:10433800FB623C6BFD6A20462946ABBE0446BC6264
:1043480035E03B68FB632FE0FB6B102B28BF102385
:104358007B630023BB630DE07B68197807F10C02CF
:10436800BB6B13440A461A70BB6B0133BB637B6893
:1043780001337B60BA6B7B6B9A42EDD307F10C0279
:10438800BB6B134400221A7004237B6207F10C03F1
:104398003B627C6A3D6A20462946ABBE0446FC6106
:1043A800FA6B7B6BD31AFB63FB6B002BCCD13B689E
:1043B80018464037BD46B0BD80B500AF00F0CEF816
:1043C800014B024A9A6080BD00ED00E00000000841
:1043D80080B500AF00F0F6F880BD00BF80B584B0AE
:1043E80000AFF860B9607A603B603448FFF74AFF75
:1043F800FB681B6832481946FFF744FFFB685B6897
:1044080030481946FFF73EFFFB689B682E4819465F
:10441800FFF738FFFB68DB682C481946FFF732FFC7
:10442800FB681B692A481946FFF72CFFFB685B6984
:1044380028481946FFF726FFFB689B692648194656
:10444800FFF720FFFB68DB6924481946FFF71AFFCE
:104458002348FFF717FF2348B968FFF713FF224BDC
:10446800DB6A22481946FFF70DFF1F4B1B6B2048DC
:104478001946FFF707FF1C4BDB6B1E481946FFF771
:1044880001FFBB6803F08003002B03D01A4879684A
:10449800FFF7F8FEBB6803F40043002B03D017486E
:1044A8003968FFF7EFFE1648FFF7ECFE1548B969C3
:1044B800FFF7E8FE1037BD4680BD00BF4CBE0008C0
:1044C8005CBE00086CBE00087CBE00088CBE0008FC
:1044D8009CBE0008ACBE0008BCBE0008CCBE0008EC
:1044E800DCBE0008E8BE000800ED00E0F8BE0008E9
:1044F80008BF000818BF000828BF000838BF000818
:1045080048BF000850BF000880B485B000AF78608D
:104518000B467B807B689B69FB60FB681B887A88FD
:104528009A4213D17B681B68BB60BB68032B03D01E
:10453800042B03D000230AE000BF00E000BF7B6823
:104548009B699A1C7B689A61012300E00023184646
:104558001437BD465DF8047B704700BF80B500AFD7
:10456800154A154B1B6843F0010313601249124B9F
:104578005A68124B13404B600F4A0F4B1B6823F0CD
:10458800847323F4803313600B4A0B4B1B6823F4AA
:1045980080231360084A084B5B6823F4FE035360CA
:1045A800054B4FF41F029A6000F07AF8044B4FF065
:1045B80000629A6080BD00BF001002400000FFF852
:1045C80000ED00E080B485B000AF0023FB6000235D
:1045D800BB6000237B602D4B5B6803F00C03FB6022
:1045E800FB68042B07D0082B09D0002B34D1284BAB
:1045F800284A1A6034E0264B264A1A6030E0234BDA
:104608005B6803F47013BB60204B5B6803F4803372
:104618007B60BB689B0C0233BB607B68002B06D1B8
:10462800BB681D4A02FB03F3194A136013E0174BDA
:104638005B6803F40033002B06D0BB68164A02FB04
:1046480003F3134A136006E0BB68124A02FB03F344
:104658000F4A136004E003E00D4B0E4A1A6000BFD6
:104668000A4B5B6803F0F0031B090C4AD35CDBB20E
:10467800FB60074B1A68FB6822FA03F3044A1360CD
:104688001437BD465DF8047B704700BF0010024038
:104698002000002000127A0000093D0024000020BC
:1046A80080B500AF00F002F880BD00BF80B483B0D1
:1046B80000AF00237B6000233B603A4A394B1B68FC
:1046C80043F480331360374B1B6803F400333B60BB
:1046D8007B6801337B603B68002B03D17B68B3F5B3
:1046E800A06FF0D12F4B1B6803F40033002B02D0CE
:1046F80001233B6001E000233B603B68012B4BD169
:10470800294A294B1B6843F010031360264A264B9D
:104718001B6823F003031360234A234B1B6843F0F1
:10472800020313601F4A1F4B5B6853601D4A1D4BF1
:104738005B6853601B4A1B4B5B6843F480635360A0
:10474800184A184B5B6823F47C135360154A154BC1
:104758005B6843F4E8135360124A124B1B6843F03A
:104768008073136000BF0F4B1B6803F00073002BAE
:10477800F9D00C4A0B4B5B6823F003035360094ADA
:10478800084B5B6843F00203536000BF054B5B684E
:1047980003F00C03082BF9D10C37BD465DF8047BF8
:1047A800704700BF001002400020024080B584B06E
:1047B80000AF0346FB710023FB73FB79012B02D08A
:1047C800022B03D007E000F061FD04E000F056F989
:1047D8000346FB7300BFFB7B18461037BD4680BD00
:1047E80080B584B000AF0346FB710023FB73FB79EF
:1047F800012B02D0022B03D005E000F085FD02E07A
:1048080000F0B6F900BFFB7B18461037BD4680BDE7
:1048180080B582B000AF78600B46FB70FB78012B47
:1048280002D0022B04D007E0786800F079FD03E09D
:10483800786800F09BFC00BF0837BD4680BD00BF0C
:1048480080B582B000AF0346FB71FB79012B02D023
:10485800022B03D005E000F07FFD02E000F0B2FC7F
:1048680000BF0837BD4680BD80B584B000AF0346A1
:10487800FB710023FB73FB79012B02D0022B05D0BF
:1048880009E000F023FE0346FB7304E000F006FA9B
:104898000346FB7300BFFB7B18461037BD4680BD3F
:1048A80080B582B000AF03460A46FB711346BB7160
:1048B800BB79012B02D0022B0DD011E0FB791846F1
:1048C80000F05EFDFB79084A52F8232001320649C0
:1048D80041F8232004E0FB79184600F07BFC00BF78
:1048E8000837BD4680BD00BF5C0B002080B582B094
:1048F80000AF0346FB80FB88DBB2184600F05AFD88
:10490800FB88DBB2184600F079FC0837BD4680BD4D
:1049180080B582B000AF78600B46FB70FB78012B46
:1049280002D0022B04D007E0786800F075FD03E0A0
:10493800786800F003FC00BF0837BD4680BD00BFA3
:1049480080B582B000AF0346FB71FB79012B02D022
:10495800022B03D005E000F06FFD02E000F02CFC14
:1049680000BF0837BD4680BD80B584B000AF0346A0
:10497800FB710023FB73FB79012B02D0022B05D0BE
:1049880009E000F071FD0346FB7304E000F072F9E2
:104998000346FB7300BFFB7B18461037BD4680BD3E
:1049A80080B584B000AF0346FB710023FB73FB792D
:1049B800012B02D0022B05D005E000F077FD03465D
:1049C800FB7300E000BFFB7B18461037BD4680BD77
:1049D80080B584B000AF786039600D4B80225A6191
:1049E8007B68DBB263F07F03DBB2184600F03EFC65
:1049F8003B68DBB2184600F039FC0346FB73044BF6
:104A080080221A61FB7B18461037BD4680BD00BF67
:104A18000010014080B584B000AF78600B4B802255
:104A28005A617B68DBB203F07F03DBB2184600F003
:104A38001DFC002000F01AFC0346FB73034B802288
:104A48001A61FB7B18461037BD4680BD0010014037
:104A580080B400AF034B1B781846BD465DF8047B55
:104A6800704700BFDF0B002080B500AF0720802112
:104A7800FFF7AEFF962001F06FFD80BD80B582B0D4
:104A880000AF4FF47A5001F067FDFFF7EDFF00F03B
:104A9800D5FB0020FFF7BEFF0346FB71FB79082B0F
:104AA80004D0FB79072B01D0002357E07D20042197
:104AB800FFF78EFF7E203721FFF78AFF30208D21F8
:104AC800FFF786FF32208821FFF782FF332012216B
:104AD800FFF77EFF082000F023FB224A3B1D1288C7
:104AE8001A803B1D1846022100F070FA002000F0E1
:104AF800B5FA3F201221FFF76BFF122000F076FA7B
:104B0800122000F081FA002000F08CFA002000F05A
:104B180097FA0B201221FFF75BFF0C201521FFF7F6
:104B280057FF05203721FFF753FF06205021FFF7D5
:104B38004FFF0D4B1B6818460C4900F0D1F80B20AD
:104B480000F0ECF9072000F0BDF812206021FFF713
:104B58003FFF0F208021FFF73BFF0123184608374E
:104B6800BD4680BD94BF0008F8010020CDCC4C3D67
:104B780080B400AFBD465DF8047B704780B582B055
:104B880000AF3B1D03201946022200F079FA3B7959
:104B9800DBB25BB2002B05DA00F050FB06200121E6
:104BA80002F096FE3B7903F02003002B03D0072088
:104BB800012102F08DFE3B7903F01003002B03D096
:104BC8000820012102F084FE3B7903F00103002B49
:104BD80005D00920012102F07BFE00F0EDFA7B7977
:104BE80003F01003002B06D02620FFF713FF03461F
:104BF800DAB21D4B1A707B7903F00103002B0CD03D
:104C08000A20012102F064FEFFF738FF174B1B78DA
:104C1800184600F0F3FA00F0D5FA7B7903F00403A4
:104C2800002B03D00B20012102F052FE1120FFF7C8
:104C3800F1FE0346184606F01BF9034618464FF0E6
:104C4800854106F063F80346184606F055FB03460F
:104C5800DAB2074B1A700F208021FFF7B9FE3B79B3
:104C680018460837BD4680BDE00B0020E10B002048
:104C7800DF0B002080B582B000AF0023FB71FFF787
:104C88007DFF034603F00203002B01D00123FB71D3
:104C9800FB7918460837BD4680BD00BF80B582B095
:104CA80000AF0023FB71FFF769FF034603F004031D
:104CB800002B01D00123FB71FB7918460837BD464C
:104CC80080BD00BF80B582B000AF0346FB71FB79A1
:104CD8006D201946FFF77CFE0837BD4680BD00BF32
:104CE80080B586B000AF786039604023FB7578687E
:104CF8007F4906F0B3FA0346002B06D178687D4950
:104D080006F0CAFA0346002B01D00023D9E07868E0
:104D1800794906F0B7FA0346002B41D038684FF0BE
:104D2800000106F09BFA0346002B0ED1386805F007
:104D38008BFC02460B461046194665A3D3E90023AF
:104D480005F066FF0346002B01D00023B9E0786820
:104D58004FF0804106F098F903467B60FB7D43F0F5
:104D68002003FB75386805F06FFC02460B461046B9
:104D7800194659A3D3E9002305F0BAFC02460B46AD
:104D88001046194656A3D3E9002305F0DBFD024679
:104D98000B461046194605F045FF0346BB7535E03E
:104DA80038684FF0000106F059FA0346002B0ED17F
:104DB800386805F049FC02460B46104619464AA3D6
:104DC800D3E9002305F024FF0346002B01D000237C
:104DD80077E0386805F038FC02460B46104619465D
:104DE8003DA3D3E9002305F083FC02460B46104699
:104DF80019464FF00002414B05F0A4FD02460B4650
:104E08001046194605F00EFF0346BB7578683C4905
:104E180006F03AF903467B60786805F015FC02460F
:104E28000B461046194605F01FFA02460B46104677
:104E3800194605F017FF03463B617868396905F0A4
:104E480065FF0346FB60386906F056FA0346DBB295
:104E5800183BFB72FA7DFB7A1343FB75F868294906
:104E680006F05EF80346184606F046FA03463B810C
:104E780073200021FFF7ACFD74200021FFF7A8FD87
:104E8800FB7D75201946FFF7A3FD3B891B0A9BB2E2
:104E980076201946FFF79CFD3B89DBB2772019463F
:104EA800FFF796FDBB7D2A201946FFF791FD00F01C
:104EB8002BF8034603F00803002B0CBF0123002343
:104EC800DBB218461837BD4680BD00BFAFF300807F
:104ED800666666666666D43F0000000080842E41E0
:104EE8000000000000889340666666666666C43FF8
:104EF80000007043000070440000F04300888340C5
:104F08000000204100007A4780B500AF0220FFF77B
:104F180081FD0346DBB2184680BD00BF80B588B06E
:104F280000AF0346FB71FB79192B01D9002313E06D
:104F3800FA791346DB0013445B00094A134407F16E
:104F48000C0210461946122206F0FCF907F10C0370
:104F5800184600F007F8012318462037BD4680BDE3
:104F68003400002080B582B000AF78607B681B7881
:104F78001C201946FFF72CFD7B685B781F2019461B
:104F8800FFF726FD7B68023320201946062200F031
:104F98009FF87B6808332C201946032200F098F804
:104FA8007B68DB7A58201946FFF712FD7B681B7B6C
:104FB80069201946FFF70CFD7B680D336E201946F2
:104FC800052200F085F80837BD4680BD80B582B05F
:104FD80000AF78600B46FB70FB78362079681A467C
:104FE80000F076F80837BD4680BD00BF80B582B0B6
:104FF80000AF0346FB71FB793A201946FFF7E8FC3E
:105008000837BD4680BD00BF80B582B000AF0346FB
:10501800FB71FB793B201946FFF7DAFC0837BD46E0
:1050280080BD00BF80B582B000AF0346FB71FB793D
:105038003C201946FFF7CCFC0837BD4680BD00BFB1
:1050480080B582B000AF0346FB71FB793D2019465D
:10505800FFF7BEFC0837BD4680BD00BF80B582B0F3
:1050680000AF0346FB71FB79002B01D0002300E061
:10507800FF2343201946FFF7ABFC0837BD4680BD28
:1050880090B583B000AF03463960FB711346BB711E
:105098000E4B80225A61FB7903F07F03DBB218467E
:1050A80000F0E4F807E03C68631C3B60002000F077
:1050B800DDF803462370BB795A1EBA71002BF2D172
:1050C800024B80221A610C37BD4690BD001001408A
:1050D80080B582B000AF03463960FB711346BB71DF
:1050E8000E4B80225A61FB7963F07F03DBB21846CE
:1050F80000F0BCF806E03B685A1C3A601B7818467A
:1051080000F0B4F8BB795A1EBA71002BF3D1034BE7
:1051180080221A610837BD4680BD00BF00100140DB
:1051280080B582B000AF0346FB71FB793420194685
:10513800FFF74EFC0837BD4680BD00BF80B584B080
:1051480000AF78604B20FFF765FC0346FB73FB7BE1
:10515800042B00D907E0FB7B7F2079681A46FFF70C
:105168008FFF00F077F81037BD4680BD80B582B05C
:1051780000AF78607F2079680722FFF7A9FF3E20FB
:105188000721FFF725FC00F01DF80837BD4680BD54
:1051980080B582B000AF0346FB710B20FFF7BEFE5F
:1051A800FB7943F00103DBB207201946FFF710FC37
:1051B8000837BD4680BD00BF80B500AF0420FFF7AB
:1051C800E7FF80BD80B500AF0820FFF7E1FF00F0E2
:1051D80041F880BD80B582B000AF0346FB71FB7912
:1051E800044A52F8233018460349FFF779FD083777
:1051F800BD4680BDF8010020CDCC4C3D80B582B0C5
:1052080000AF0346FB71FB793F201946FFF7E0FB2F
:10521800FB791846FFF7EAFEFB791846FFF7F4FE1C
:105228000020FFF7FFFE0020FFF70AFF024AFB7984
:1052380013700837BD4680BDE10B002080B500AF74
:1052480008200321FFF7C4FB08200021FFF7C0FB5B
:1052580080BD00BF80B500AF08200221FFF7B8FB72
:1052680008200021FFF7B4FB80BD00BF80B582B0E5
:1052780000AF0346FB71FB79184600F0D9FC0346E2
:10528800FB71FB7918460837BD4680BD80B500AF75
:105298001A4B02225A6120203B2100F045F92320B5
:1052A800012100F041F930201549032200F0A6F948
:1052B8002220012100F038F92A201249032200F0A7
:1052C8009DF93120062100F02FF92420002100F05B
:1052D8002BF92520782100F027F92620262100F037
:1052E80023F92720FF2100F01FF9E120002100F019
:1052F8001BF9E220002100F017F980BD00100140E1
:10530800040200200802002080B500AF034B0222EF
:105318005A612020392100F007F980BD00100140B2
:1053280080B582B000AF78600A4B02225A6127200C
:10533800FF2100F0F9F8E120002100F0F5F8A020A5
:105348007968062200F05AF9024B02221A610837DE
:10535800BD4680BD0010014080B500AF074B02225A
:105368005A61E120002100F0DFF820203A2100F006
:10537800DBF8024B02221A6180BD00BF0010014019
:1053880080B582B000AF0346FB71FB79084AD35C55
:105398002520194600F0C8F8E120002100F0C4F8E3
:1053A8002720FF2100F0C0F80837BD4680BD00BFA8
:1053B8000C02002080B582B000AF0346FB71FB7978
:1053C8001B12DAB2124B5A70114AFB799370FB79AF
:1053D800DB431B12DAB20F4B5A70FB79DB43DAB2AC
:1053E8000C4B9A70E120002100F09EF8E220002189
:1053F80000F09AF830200749032200F0FFF82A202D
:105408000349032200F0FAF80837BD4680BD00BF03
:10541800080200200402002080B582B000AF786046
:1054280061207968062200F0BBF82720FF2100F0F0
:105438007BF80837BD4680BD80B500AF094B022216
:105448005A61E220002100F06FF82720FF2100F0C8
:105458006BF820203B2100F067F8024B02221A610A
:1054680080BD00BF0010014080B582B000AF0023AE
:10547800FB710D4B9B6803F01003002B0ED1072026
:1054880000F072F80346BB71BB7903F04003002BB0
:1054980002D00123FB7101E00023FB71FB79184660
:1054A8000837BD4680BD00BF0010014080B582B0FE
:1054B80000AF0023FB71FB790920194600F034F88E
:1054C800FB7918460837BD4680BD00BF80B582B05D
:1054D80000AF0023FB710B4B9B6803F01003002BFC
:1054E8000BD1072000F040F80346BB71BB7903F0ED
:1054F8002003002B01D00123FB71FB7918460837E4
:10550800BD4680BD0010014080B582B000AF0346A3
:10551800FB71FB79184600F05BFB0346FB71FB79D6
:1055280018460837BD4680BD80B584B000AF034635
:105538000A46FB711346BB710A4B04225A61FB7978
:105548001846FFF7E1FF0346FB73BB791846FFF7E0
:10555800DBFF044B04221A61FB7B18461037BD465B
:1055680080BD00BF0010014080B584B000AF034685
:10557800FB710A4B04225A61FB791846FFF7C4FFF6
:105588000020FFF7C1FF0346FB73044B04221A6196
:10559800FB7B18461037BD4680BD00BF0010014098
:1055A80090B585B000AF03463960FB711346BB71F7
:1055B800114B04225A61FB791846FFF7A5FF0346F1
:1055C800BB730023FB730AE0FB7B3A68D418002006
:1055D800FFF79AFF03462370FB7B0133FB73FA7BCB
:1055E800BB799A42F0D3044B04221A61BB7B18465C
:1055F8001437BD4690BD00BF0010014080B584B08F
:1056080000AF03463960FB711346BB71114B04228E
:105618005A61FB791846FFF777FF0346FB730023AF
:10562800BB730BE03B685A1C3A601B781846FFF7BF
:105638006BFF0346FB73BB7B0133BB73BA7BBB7940
:105648009A42EFD3034B04221A61FB7B18461037AA
:10565800BD4680BD0010014080B500AF3C48FAF758
:10566800CDFF3C48FBF7ECFB3B4B3C4A1A603C4AFD
:10567800394B5A60384B00229A60374B0122DA6066
:10568800354B00221A61344B00225A61324B4FF4D9
:1056980080729A61304B4FF48062DA612E4B20227F
:1056A8001A622D4B4FF400525A622B4B00229A6219
:1056B80028482949FBF7B4FC26480121FBF7C0FD1F
:1056C8002848FBF7FDF8274B00221A60254B0022DB
:1056D8001A71244B01225A71224B4FF460229A60AE
:1056E800204B0022DA601F4B02221A7418481D4909
:1056F800FAF7D0FF1648112101220323FBF75CFAC1
:105708001348102102220323FBF756FA10480121FF
:10571800FBF730F90E480121FBF7EEF80C48FBF7D0
:1057280061F900BF0A48FBF783F90346002BF9D15A
:105738000748FBF7ADF900BF0548FBF7CFF903466B
:10574800002BF9D102480121FBF7F8F980BD00BF11
:105758000024014008000240FC0B00204C240140BA
:10576800F80B0020E40B002080B485B000AF03469E
:10577800FB71FB79012B02D0022B04D007E00C4B04
:105788001B88FB8106E00A4B5B88FB8102E0002353
:10579800FB8100BFFB8940F6E44202FB03F31B0BCD
:1057A800FB81FB8918461437BD465DF8047B7047BA
:1057B800F80B002080B483B000AF03463960FB715A
:1057C80097F90730002B0BDA0D49FB7903F00F032B
:1057D800043B3A68D2B21201D2B20B441A7609E0FD
:1057E800084997F907303A68D2B21201D2B20B448D
:1057F80083F800230C37BD465DF8047B704700BF73
:1058080000ED00E000E100E080B582B000AF786014
:105818007B68013BB3F1807F01D301230FE00A4A83
:105828007B68013B53604FF0FF300F21FFF7C2FF49
:10583800054B00229A60044B07221A600023184681
:105848000837BD4680BD00BF10E000E080B582B0DB
:1058580000AF2E233B7102237B710023BB71012310
:10586800FB713B1D1846FAF74BFE1D233B710123C4
:105878007B710023BB710123FB713B1D1846FAF7AE
:105888003FFE084B1B68084AA2FB03239B091846E6
:10589800FFF7BAFF4FF0FF300021FFF78BFF083703
:1058A800BD4680BD20000020D34D621080B582B077
:1058B80000AFFBF70BFF4FF48030FBF735FFFBF72A
:1058C80071FF0346FB71FB79012B28D11020FBF7F0
:1058D800B1FD0220FBF784FD0020FCF74DF8002005
:1058E800FCF7BAF84FF48060FCF782F84FF4803088
:1058F8004FF4E011FBF77EFF0120FBF7E9FF00BF43
:105908003920FCF79FFA0346002BF9D00220FBF759
:10591800F9FF00BFFCF720F80346082BFAD1083737
:10592800BD4680BD80B483B000AF064B7B607B680A
:105938001B6823F07F4318460C37BD465DF8047B8F
:10594800704700BFE8F7FF1F80B500AFFEF706FEFF
:10595800FFF7ACFF1D200121FCF7CCF94FF4004004
:10596800FCF7AEF84FF400700121FCF7C3F90120F1
:105978000121FCF787F94FF480500121FCF7BAF9AF
:105988004FF480400121FCF7EDF94FF4005001215C
:10599800FCF7B0F904200121FCF7E4F90220012109
:1059A800FCF7E0F97E20FCF74DFA0346002B01D006
:1059B800FCF7A8FA4FF400600121FCF7D3F94FF483
:1059C80080400121FCF796F980BD00BF80B582B008
:1059D80000AF0220FFF7C8FE03469B00DBB203F0CE
:1059E8000C03FB710120FFF7BFFE034603F003031E
:1059F800DAB2FB791343DBB2FB710B4B9B68DAB26B
:105A0800FB795340FB71FA79084BA3FB0213D908C1
:105A18000B469B000B4499000B44D31AFB71FB798E
:105A280018460837BD4680BD10E000E01F85EB51E1
:105A380080B582B000AF4FF40073BB801823FB71B0
:105A48000323BB713B1D48481946FBF715FDA023EE
:105A5800BB801823FB713B1D44481946FBF70CFD1E
:105A68004023BB800423FB713B1D40481946FBF7CC
:105A780003FD1023BB804823FB713B1D3C4819469E
:105A8800FBF7FAFC0223BB801023FB713B1D38484F
:105A98001946FBF7F1FC0423BB801023FB713B1D67
:105AA80033481946FBF7E8FC4FF42043BB80182322
:105AB800FB713B1D2C481946FBF7DEFC4FF4804375
:105AC800BB800423FB713B1D27481946FBF7D4FC18
